{
	"contracts/ExampleMappingStruct.sol": {
		"WalletWithStructMapping": {
			"abi": [
				{
					"inputs": [
						{
							"internalType": "address",
							"name": "",
							"type": "address"
						}
					],
					"name": "balances",
					"outputs": [
						{
							"internalType": "uint256",
							"name": "totalBalance",
							"type": "uint256"
						},
						{
							"internalType": "uint256",
							"name": "numberOfDeposits",
							"type": "uint256"
						},
						{
							"internalType": "uint256",
							"name": "numberOfWithdrawls",
							"type": "uint256"
						}
					],
					"stateMutability": "view",
					"type": "function"
				},
				{
					"inputs": [],
					"name": "despositMoney",
					"outputs": [],
					"stateMutability": "payable",
					"type": "function"
				},
				{
					"inputs": [
						{
							"internalType": "address payable",
							"name": "_to",
							"type": "address"
						},
						{
							"internalType": "uint256",
							"name": "_amount",
							"type": "uint256"
						}
					],
					"name": "withdrawMoney",
					"outputs": [],
					"stateMutability": "nonpayable",
					"type": "function"
				}
			],
			"devdoc": {
				"kind": "dev",
				"methods": {},
				"version": 1
			},
			"evm": {
				"assembly": "    /* \"contracts/ExampleMappingStruct.sol\":57:1280  contract WalletWithStructMapping {... */\n  mstore(0x40, 0x80)\n  callvalue\n  dup1\n  iszero\n  tag_1\n  jumpi\n  0x00\n  dup1\n  revert\ntag_1:\n  pop\n  dataSize(sub_0)\n  dup1\n  dataOffset(sub_0)\n  0x00\n  codecopy\n  0x00\n  return\nstop\n\nsub_0: assembly {\n        /* \"contracts/ExampleMappingStruct.sol\":57:1280  contract WalletWithStructMapping {... */\n      mstore(0x40, 0x80)\n      jumpi(tag_1, lt(calldatasize, 0x04))\n      shr(0xe0, calldataload(0x00))\n      dup1\n      0x05cfe974\n      eq\n      tag_2\n      jumpi\n      dup1\n      0x27e235e3\n      eq\n      tag_3\n      jumpi\n      dup1\n      0xf274c897\n      eq\n      tag_4\n      jumpi\n    tag_1:\n      0x00\n      dup1\n      revert\n        /* \"contracts/ExampleMappingStruct.sol\":440:761  function despositMoney() public payable {... */\n    tag_2:\n      tag_5\n      tag_6\n      jump\t// in\n    tag_5:\n      stop\n        /* \"contracts/ExampleMappingStruct.sol\":389:433  mapping (address => Balance) public balances */\n    tag_3:\n      callvalue\n      dup1\n      iszero\n      tag_7\n      jumpi\n      0x00\n      dup1\n      revert\n    tag_7:\n      pop\n      tag_8\n      0x04\n      dup1\n      calldatasize\n      sub\n      dup2\n      add\n      swap1\n      tag_9\n      swap2\n      swap1\n      tag_10\n      jump\t// in\n    tag_9:\n      tag_11\n      jump\t// in\n    tag_8:\n      mload(0x40)\n      tag_12\n      swap4\n      swap3\n      swap2\n      swap1\n      tag_13\n      jump\t// in\n    tag_12:\n      mload(0x40)\n      dup1\n      swap2\n      sub\n      swap1\n      return\n        /* \"contracts/ExampleMappingStruct.sol\":767:1277  function withdrawMoney(address payable  _to, uint256 _amount) public {... */\n    tag_4:\n      callvalue\n      dup1\n      iszero\n      tag_14\n      jumpi\n      0x00\n      dup1\n      revert\n    tag_14:\n      pop\n      tag_15\n      0x04\n      dup1\n      calldatasize\n      sub\n      dup2\n      add\n      swap1\n      tag_16\n      swap2\n      swap1\n      tag_17\n      jump\t// in\n    tag_16:\n      tag_18\n      jump\t// in\n    tag_15:\n      stop\n        /* \"contracts/ExampleMappingStruct.sol\":440:761  function despositMoney() public payable {... */\n    tag_6:\n        /* \"contracts/ExampleMappingStruct.sol\":527:536  msg.value */\n      callvalue\n        /* \"contracts/ExampleMappingStruct.sol\":490:498  balances */\n      0x00\n        /* \"contracts/ExampleMappingStruct.sol\":490:510  balances[msg.sender] */\n      dup1\n        /* \"contracts/ExampleMappingStruct.sol\":499:509  msg.sender */\n      caller\n        /* \"contracts/ExampleMappingStruct.sol\":490:510  balances[msg.sender] */\n      0xffffffffffffffffffffffffffffffffffffffff\n      and\n      0xffffffffffffffffffffffffffffffffffffffff\n      and\n      dup2\n      mstore\n      0x20\n      add\n      swap1\n      dup2\n      mstore\n      0x20\n      add\n      0x00\n      keccak256\n        /* \"contracts/ExampleMappingStruct.sol\":490:523  balances[msg.sender].totalBalance */\n      0x00\n      add\n      0x00\n        /* \"contracts/ExampleMappingStruct.sol\":490:536  balances[msg.sender].totalBalance += msg.value */\n      dup3\n      dup3\n      sload\n      tag_20\n      swap2\n      swap1\n      tag_21\n      jump\t// in\n    tag_20:\n      swap3\n      pop\n      pop\n      dup2\n      swap1\n      sstore\n      pop\n        /* \"contracts/ExampleMappingStruct.sol\":546:572  Transaction memory deposit */\n      0x00\n        /* \"contracts/ExampleMappingStruct.sol\":575:614  Transaction(msg.value, block.timestamp) */\n      mload(0x40)\n      dup1\n      0x40\n      add\n      0x40\n      mstore\n      dup1\n        /* \"contracts/ExampleMappingStruct.sol\":587:596  msg.value */\n      callvalue\n        /* \"contracts/ExampleMappingStruct.sol\":575:614  Transaction(msg.value, block.timestamp) */\n      dup2\n      mstore\n      0x20\n      add\n        /* \"contracts/ExampleMappingStruct.sol\":598:613  block.timestamp */\n      timestamp\n        /* \"contracts/ExampleMappingStruct.sol\":575:614  Transaction(msg.value, block.timestamp) */\n      dup2\n      mstore\n      pop\n        /* \"contracts/ExampleMappingStruct.sol\":546:614  Transaction memory deposit = Transaction(msg.value, block.timestamp) */\n      swap1\n      pop\n        /* \"contracts/ExampleMappingStruct.sol\":695:702  deposit */\n      dup1\n        /* \"contracts/ExampleMappingStruct.sol\":624:632  balances */\n      0x00\n        /* \"contracts/ExampleMappingStruct.sol\":624:644  balances[msg.sender] */\n      dup1\n        /* \"contracts/ExampleMappingStruct.sol\":633:643  msg.sender */\n      caller\n        /* \"contracts/ExampleMappingStruct.sol\":624:644  balances[msg.sender] */\n      0xffffffffffffffffffffffffffffffffffffffff\n      and\n      0xffffffffffffffffffffffffffffffffffffffff\n      and\n      dup2\n      mstore\n      0x20\n      add\n      swap1\n      dup2\n      mstore\n      0x20\n      add\n      0x00\n      keccak256\n        /* \"contracts/ExampleMappingStruct.sol\":624:653  balances[msg.sender].deposits */\n      0x02\n      add\n        /* \"contracts/ExampleMappingStruct.sol\":624:692  balances[msg.sender].deposits[balances[msg.sender].numberOfDeposits] */\n      0x00\n        /* \"contracts/ExampleMappingStruct.sol\":654:662  balances */\n      dup1\n        /* \"contracts/ExampleMappingStruct.sol\":654:674  balances[msg.sender] */\n      0x00\n        /* \"contracts/ExampleMappingStruct.sol\":663:673  msg.sender */\n      caller\n        /* \"contracts/ExampleMappingStruct.sol\":654:674  balances[msg.sender] */\n      0xffffffffffffffffffffffffffffffffffffffff\n      and\n      0xffffffffffffffffffffffffffffffffffffffff\n      and\n      dup2\n      mstore\n      0x20\n      add\n      swap1\n      dup2\n      mstore\n      0x20\n      add\n      0x00\n      keccak256\n        /* \"contracts/ExampleMappingStruct.sol\":654:691  balances[msg.sender].numberOfDeposits */\n      0x01\n      add\n      sload\n        /* \"contracts/ExampleMappingStruct.sol\":624:692  balances[msg.sender].deposits[balances[msg.sender].numberOfDeposits] */\n      dup2\n      mstore\n      0x20\n      add\n      swap1\n      dup2\n      mstore\n      0x20\n      add\n      0x00\n      keccak256\n        /* \"contracts/ExampleMappingStruct.sol\":624:702  balances[msg.sender].deposits[balances[msg.sender].numberOfDeposits] = deposit */\n      0x00\n      dup3\n      add\n      mload\n      dup2\n      0x00\n      add\n      sstore\n      0x20\n      dup3\n      add\n      mload\n      dup2\n      0x01\n      add\n      sstore\n      swap1\n      pop\n      pop\n        /* \"contracts/ExampleMappingStruct.sol\":753:754  1 */\n      0x01\n        /* \"contracts/ExampleMappingStruct.sol\":712:720  balances */\n      0x00\n        /* \"contracts/ExampleMappingStruct.sol\":712:732  balances[msg.sender] */\n      dup1\n        /* \"contracts/ExampleMappingStruct.sol\":721:731  msg.sender */\n      caller\n        /* \"contracts/ExampleMappingStruct.sol\":712:732  balances[msg.sender] */\n      0xffffffffffffffffffffffffffffffffffffffff\n      and\n      0xffffffffffffffffffffffffffffffffffffffff\n      and\n      dup2\n      mstore\n      0x20\n      add\n      swap1\n      dup2\n      mstore\n      0x20\n      add\n      0x00\n      keccak256\n        /* \"contracts/ExampleMappingStruct.sol\":712:749  balances[msg.sender].numberOfDeposits */\n      0x01\n      add\n      0x00\n        /* \"contracts/ExampleMappingStruct.sol\":712:754  balances[msg.sender].numberOfDeposits += 1 */\n      dup3\n      dup3\n      sload\n      tag_22\n      swap2\n      swap1\n      tag_21\n      jump\t// in\n    tag_22:\n      swap3\n      pop\n      pop\n      dup2\n      swap1\n      sstore\n      pop\n        /* \"contracts/ExampleMappingStruct.sol\":480:761  {... */\n      pop\n        /* \"contracts/ExampleMappingStruct.sol\":440:761  function despositMoney() public payable {... */\n      jump\t// out\n        /* \"contracts/ExampleMappingStruct.sol\":389:433  mapping (address => Balance) public balances */\n    tag_11:\n      mstore(0x20, 0x00)\n      dup1\n      0x00\n      mstore\n      keccak256(0x00, 0x40)\n      0x00\n      swap2\n      pop\n      swap1\n      pop\n      dup1\n      0x00\n      add\n      sload\n      swap1\n      dup1\n      0x01\n      add\n      sload\n      swap1\n      dup1\n      0x03\n      add\n      sload\n      swap1\n      pop\n      dup4\n      jump\t// out\n        /* \"contracts/ExampleMappingStruct.sol\":767:1277  function withdrawMoney(address payable  _to, uint256 _amount) public {... */\n    tag_18:\n        /* \"contracts/ExampleMappingStruct.sol\":846:861  uint256 balance */\n      0x00\n        /* \"contracts/ExampleMappingStruct.sol\":864:872  balances */\n      dup1\n        /* \"contracts/ExampleMappingStruct.sol\":864:884  balances[msg.sender] */\n      0x00\n        /* \"contracts/ExampleMappingStruct.sol\":873:883  msg.sender */\n      caller\n        /* \"contracts/ExampleMappingStruct.sol\":864:884  balances[msg.sender] */\n      0xffffffffffffffffffffffffffffffffffffffff\n      and\n      0xffffffffffffffffffffffffffffffffffffffff\n      and\n      dup2\n      mstore\n      0x20\n      add\n      swap1\n      dup2\n      mstore\n      0x20\n      add\n      0x00\n      keccak256\n        /* \"contracts/ExampleMappingStruct.sol\":864:897  balances[msg.sender].totalBalance */\n      0x00\n      add\n      sload\n        /* \"contracts/ExampleMappingStruct.sol\":846:897  uint256 balance = balances[msg.sender].totalBalance */\n      swap1\n      pop\n        /* \"contracts/ExampleMappingStruct.sol\":927:934  _amount */\n      dup2\n        /* \"contracts/ExampleMappingStruct.sol\":916:923  balance */\n      dup2\n        /* \"contracts/ExampleMappingStruct.sol\":916:934  balance >= _amount */\n      lt\n      iszero\n        /* \"contracts/ExampleMappingStruct.sol\":908:959  require(balance >= _amount, \"Insufficient balance\") */\n      tag_24\n      jumpi\n      mload(0x40)\n      0x08c379a000000000000000000000000000000000000000000000000000000000\n      dup2\n      mstore\n      0x04\n      add\n      tag_25\n      swap1\n      tag_26\n      jump\t// in\n    tag_25:\n      mload(0x40)\n      dup1\n      swap2\n      sub\n      swap1\n      revert\n    tag_24:\n        /* \"contracts/ExampleMappingStruct.sol\":1007:1014  _amount */\n      dup2\n        /* \"contracts/ExampleMappingStruct.sol\":970:978  balances */\n      0x00\n        /* \"contracts/ExampleMappingStruct.sol\":970:990  balances[msg.sender] */\n      dup1\n        /* \"contracts/ExampleMappingStruct.sol\":979:989  msg.sender */\n      caller\n        /* \"contracts/ExampleMappingStruct.sol\":970:990  balances[msg.sender] */\n      0xffffffffffffffffffffffffffffffffffffffff\n      and\n      0xffffffffffffffffffffffffffffffffffffffff\n      and\n      dup2\n      mstore\n      0x20\n      add\n      swap1\n      dup2\n      mstore\n      0x20\n      add\n      0x00\n      keccak256\n        /* \"contracts/ExampleMappingStruct.sol\":970:1003  balances[msg.sender].totalBalance */\n      0x00\n      add\n      0x00\n        /* \"contracts/ExampleMappingStruct.sol\":970:1014  balances[msg.sender].totalBalance -= _amount */\n      dup3\n      dup3\n      sload\n      tag_27\n      swap2\n      swap1\n      tag_28\n      jump\t// in\n    tag_27:\n      swap3\n      pop\n      pop\n      dup2\n      swap1\n      sstore\n      pop\n        /* \"contracts/ExampleMappingStruct.sol\":1024:1052  Transaction memory withdrawl */\n      0x00\n        /* \"contracts/ExampleMappingStruct.sol\":1055:1092  Transaction(_amount, block.timestamp) */\n      mload(0x40)\n      dup1\n      0x40\n      add\n      0x40\n      mstore\n      dup1\n        /* \"contracts/ExampleMappingStruct.sol\":1067:1074  _amount */\n      dup5\n        /* \"contracts/ExampleMappingStruct.sol\":1055:1092  Transaction(_amount, block.timestamp) */\n      dup2\n      mstore\n      0x20\n      add\n        /* \"contracts/ExampleMappingStruct.sol\":1076:1091  block.timestamp */\n      timestamp\n        /* \"contracts/ExampleMappingStruct.sol\":1055:1092  Transaction(_amount, block.timestamp) */\n      dup2\n      mstore\n      pop\n        /* \"contracts/ExampleMappingStruct.sol\":1024:1092  Transaction memory withdrawl = Transaction(_amount, block.timestamp) */\n      swap1\n      pop\n        /* \"contracts/ExampleMappingStruct.sol\":1176:1185  withdrawl */\n      dup1\n        /* \"contracts/ExampleMappingStruct.sol\":1102:1110  balances */\n      0x00\n        /* \"contracts/ExampleMappingStruct.sol\":1102:1122  balances[msg.sender] */\n      dup1\n        /* \"contracts/ExampleMappingStruct.sol\":1111:1121  msg.sender */\n      caller\n        /* \"contracts/ExampleMappingStruct.sol\":1102:1122  balances[msg.sender] */\n      0xffffffffffffffffffffffffffffffffffffffff\n      and\n      0xffffffffffffffffffffffffffffffffffffffff\n      and\n      dup2\n      mstore\n      0x20\n      add\n      swap1\n      dup2\n      mstore\n      0x20\n      add\n      0x00\n      keccak256\n        /* \"contracts/ExampleMappingStruct.sol\":1102:1132  balances[msg.sender].withdraws */\n      0x04\n      add\n        /* \"contracts/ExampleMappingStruct.sol\":1102:1173  balances[msg.sender].withdraws[balances[msg.sender].numberOfWithdrawls] */\n      0x00\n        /* \"contracts/ExampleMappingStruct.sol\":1133:1141  balances */\n      dup1\n        /* \"contracts/ExampleMappingStruct.sol\":1133:1153  balances[msg.sender] */\n      0x00\n        /* \"contracts/ExampleMappingStruct.sol\":1142:1152  msg.sender */\n      caller\n        /* \"contracts/ExampleMappingStruct.sol\":1133:1153  balances[msg.sender] */\n      0xffffffffffffffffffffffffffffffffffffffff\n      and\n      0xffffffffffffffffffffffffffffffffffffffff\n      and\n      dup2\n      mstore\n      0x20\n      add\n      swap1\n      dup2\n      mstore\n      0x20\n      add\n      0x00\n      keccak256\n        /* \"contracts/ExampleMappingStruct.sol\":1133:1172  balances[msg.sender].numberOfWithdrawls */\n      0x03\n      add\n      sload\n        /* \"contracts/ExampleMappingStruct.sol\":1102:1173  balances[msg.sender].withdraws[balances[msg.sender].numberOfWithdrawls] */\n      dup2\n      mstore\n      0x20\n      add\n      swap1\n      dup2\n      mstore\n      0x20\n      add\n      0x00\n      keccak256\n        /* \"contracts/ExampleMappingStruct.sol\":1102:1185  balances[msg.sender].withdraws[balances[msg.sender].numberOfWithdrawls] = withdrawl */\n      0x00\n      dup3\n      add\n      mload\n      dup2\n      0x00\n      add\n      sstore\n      0x20\n      dup3\n      add\n      mload\n      dup2\n      0x01\n      add\n      sstore\n      swap1\n      pop\n      pop\n        /* \"contracts/ExampleMappingStruct.sol\":1238:1239  1 */\n      0x01\n        /* \"contracts/ExampleMappingStruct.sol\":1195:1203  balances */\n      0x00\n        /* \"contracts/ExampleMappingStruct.sol\":1195:1215  balances[msg.sender] */\n      dup1\n        /* \"contracts/ExampleMappingStruct.sol\":1204:1214  msg.sender */\n      caller\n        /* \"contracts/ExampleMappingStruct.sol\":1195:1215  balances[msg.sender] */\n      0xffffffffffffffffffffffffffffffffffffffff\n      and\n      0xffffffffffffffffffffffffffffffffffffffff\n      and\n      dup2\n      mstore\n      0x20\n      add\n      swap1\n      dup2\n      mstore\n      0x20\n      add\n      0x00\n      keccak256\n        /* \"contracts/ExampleMappingStruct.sol\":1195:1234  balances[msg.sender].numberOfWithdrawls */\n      0x03\n      add\n      0x00\n        /* \"contracts/ExampleMappingStruct.sol\":1195:1239  balances[msg.sender].numberOfWithdrawls += 1 */\n      dup3\n      dup3\n      sload\n      tag_29\n      swap2\n      swap1\n      tag_21\n      jump\t// in\n    tag_29:\n      swap3\n      pop\n      pop\n      dup2\n      swap1\n      sstore\n      pop\n        /* \"contracts/ExampleMappingStruct.sol\":1249:1252  _to */\n      dup4\n        /* \"contracts/ExampleMappingStruct.sol\":1249:1261  _to.transfer */\n      0xffffffffffffffffffffffffffffffffffffffff\n      and\n        /* \"contracts/ExampleMappingStruct.sol\":1249:1270  _to.transfer(_amount) */\n      0x08fc\n        /* \"contracts/ExampleMappingStruct.sol\":1262:1269  _amount */\n      dup5\n        /* \"contracts/ExampleMappingStruct.sol\":1249:1270  _to.transfer(_amount) */\n      swap1\n      dup2\n      iszero\n      mul\n      swap1\n      mload(0x40)\n      0x00\n      mload(0x40)\n      dup1\n      dup4\n      sub\n      dup2\n      dup6\n      dup9\n      dup9\n      call\n      swap4\n      pop\n      pop\n      pop\n      pop\n      iszero\n      dup1\n      iszero\n      tag_31\n      jumpi\n      returndatasize\n      0x00\n      dup1\n      returndatacopy\n      revert(0x00, returndatasize)\n    tag_31:\n      pop\n        /* \"contracts/ExampleMappingStruct.sol\":836:1277  {... */\n      pop\n      pop\n        /* \"contracts/ExampleMappingStruct.sol\":767:1277  function withdrawMoney(address payable  _to, uint256 _amount) public {... */\n      pop\n      pop\n      jump\t// out\n        /* \"#utility.yul\":88:205   */\n    tag_33:\n        /* \"#utility.yul\":197:198   */\n      0x00\n        /* \"#utility.yul\":194:195   */\n      dup1\n        /* \"#utility.yul\":187:199   */\n      revert\n        /* \"#utility.yul\":334:460   */\n    tag_35:\n        /* \"#utility.yul\":371:378   */\n      0x00\n        /* \"#utility.yul\":411:453   */\n      0xffffffffffffffffffffffffffffffffffffffff\n        /* \"#utility.yul\":404:409   */\n      dup3\n        /* \"#utility.yul\":400:454   */\n      and\n        /* \"#utility.yul\":389:454   */\n      swap1\n      pop\n        /* \"#utility.yul\":334:460   */\n      swap2\n      swap1\n      pop\n      jump\t// out\n        /* \"#utility.yul\":466:562   */\n    tag_36:\n        /* \"#utility.yul\":503:510   */\n      0x00\n        /* \"#utility.yul\":532:556   */\n      tag_56\n        /* \"#utility.yul\":550:555   */\n      dup3\n        /* \"#utility.yul\":532:556   */\n      tag_35\n      jump\t// in\n    tag_56:\n        /* \"#utility.yul\":521:556   */\n      swap1\n      pop\n        /* \"#utility.yul\":466:562   */\n      swap2\n      swap1\n      pop\n      jump\t// out\n        /* \"#utility.yul\":568:690   */\n    tag_37:\n        /* \"#utility.yul\":641:665   */\n      tag_58\n        /* \"#utility.yul\":659:664   */\n      dup2\n        /* \"#utility.yul\":641:665   */\n      tag_36\n      jump\t// in\n    tag_58:\n        /* \"#utility.yul\":634:639   */\n      dup2\n        /* \"#utility.yul\":631:666   */\n      eq\n        /* \"#utility.yul\":621:684   */\n      tag_59\n      jumpi\n        /* \"#utility.yul\":680:681   */\n      0x00\n        /* \"#utility.yul\":677:678   */\n      dup1\n        /* \"#utility.yul\":670:682   */\n      revert\n        /* \"#utility.yul\":621:684   */\n    tag_59:\n        /* \"#utility.yul\":568:690   */\n      pop\n      jump\t// out\n        /* \"#utility.yul\":696:835   */\n    tag_38:\n        /* \"#utility.yul\":742:747   */\n      0x00\n        /* \"#utility.yul\":780:786   */\n      dup2\n        /* \"#utility.yul\":767:787   */\n      calldataload\n        /* \"#utility.yul\":758:787   */\n      swap1\n      pop\n        /* \"#utility.yul\":796:829   */\n      tag_61\n        /* \"#utility.yul\":823:828   */\n      dup2\n        /* \"#utility.yul\":796:829   */\n      tag_37\n      jump\t// in\n    tag_61:\n        /* \"#utility.yul\":696:835   */\n      swap3\n      swap2\n      pop\n      pop\n      jump\t// out\n        /* \"#utility.yul\":841:1170   */\n    tag_10:\n        /* \"#utility.yul\":900:906   */\n      0x00\n        /* \"#utility.yul\":949:951   */\n      0x20\n        /* \"#utility.yul\":937:946   */\n      dup3\n        /* \"#utility.yul\":928:935   */\n      dup5\n        /* \"#utility.yul\":924:947   */\n      sub\n        /* \"#utility.yul\":920:952   */\n      slt\n        /* \"#utility.yul\":917:1036   */\n      iszero\n      tag_63\n      jumpi\n        /* \"#utility.yul\":955:1034   */\n      tag_64\n      tag_33\n      jump\t// in\n    tag_64:\n        /* \"#utility.yul\":917:1036   */\n    tag_63:\n        /* \"#utility.yul\":1075:1076   */\n      0x00\n        /* \"#utility.yul\":1100:1153   */\n      tag_65\n        /* \"#utility.yul\":1145:1152   */\n      dup5\n        /* \"#utility.yul\":1136:1142   */\n      dup3\n        /* \"#utility.yul\":1125:1134   */\n      dup6\n        /* \"#utility.yul\":1121:1143   */\n      add\n        /* \"#utility.yul\":1100:1153   */\n      tag_38\n      jump\t// in\n    tag_65:\n        /* \"#utility.yul\":1090:1153   */\n      swap2\n      pop\n        /* \"#utility.yul\":1046:1163   */\n      pop\n        /* \"#utility.yul\":841:1170   */\n      swap3\n      swap2\n      pop\n      pop\n      jump\t// out\n        /* \"#utility.yul\":1176:1253   */\n    tag_39:\n        /* \"#utility.yul\":1213:1220   */\n      0x00\n        /* \"#utility.yul\":1242:1247   */\n      dup2\n        /* \"#utility.yul\":1231:1247   */\n      swap1\n      pop\n        /* \"#utility.yul\":1176:1253   */\n      swap2\n      swap1\n      pop\n      jump\t// out\n        /* \"#utility.yul\":1259:1377   */\n    tag_40:\n        /* \"#utility.yul\":1346:1370   */\n      tag_68\n        /* \"#utility.yul\":1364:1369   */\n      dup2\n        /* \"#utility.yul\":1346:1370   */\n      tag_39\n      jump\t// in\n    tag_68:\n        /* \"#utility.yul\":1341:1344   */\n      dup3\n        /* \"#utility.yul\":1334:1371   */\n      mstore\n        /* \"#utility.yul\":1259:1377   */\n      pop\n      pop\n      jump\t// out\n        /* \"#utility.yul\":1383:1825   */\n    tag_13:\n        /* \"#utility.yul\":1532:1536   */\n      0x00\n        /* \"#utility.yul\":1570:1572   */\n      0x60\n        /* \"#utility.yul\":1559:1568   */\n      dup3\n        /* \"#utility.yul\":1555:1573   */\n      add\n        /* \"#utility.yul\":1547:1573   */\n      swap1\n      pop\n        /* \"#utility.yul\":1583:1654   */\n      tag_70\n        /* \"#utility.yul\":1651:1652   */\n      0x00\n        /* \"#utility.yul\":1640:1649   */\n      dup4\n        /* \"#utility.yul\":1636:1653   */\n      add\n        /* \"#utility.yul\":1627:1633   */\n      dup7\n        /* \"#utility.yul\":1583:1654   */\n      tag_40\n      jump\t// in\n    tag_70:\n        /* \"#utility.yul\":1664:1736   */\n      tag_71\n        /* \"#utility.yul\":1732:1734   */\n      0x20\n        /* \"#utility.yul\":1721:1730   */\n      dup4\n        /* \"#utility.yul\":1717:1735   */\n      add\n        /* \"#utility.yul\":1708:1714   */\n      dup6\n        /* \"#utility.yul\":1664:1736   */\n      tag_40\n      jump\t// in\n    tag_71:\n        /* \"#utility.yul\":1746:1818   */\n      tag_72\n        /* \"#utility.yul\":1814:1816   */\n      0x40\n        /* \"#utility.yul\":1803:1812   */\n      dup4\n        /* \"#utility.yul\":1799:1817   */\n      add\n        /* \"#utility.yul\":1790:1796   */\n      dup5\n        /* \"#utility.yul\":1746:1818   */\n      tag_40\n      jump\t// in\n    tag_72:\n        /* \"#utility.yul\":1383:1825   */\n      swap5\n      swap4\n      pop\n      pop\n      pop\n      pop\n      jump\t// out\n        /* \"#utility.yul\":1831:1935   */\n    tag_41:\n        /* \"#utility.yul\":1876:1883   */\n      0x00\n        /* \"#utility.yul\":1905:1929   */\n      tag_74\n        /* \"#utility.yul\":1923:1928   */\n      dup3\n        /* \"#utility.yul\":1905:1929   */\n      tag_35\n      jump\t// in\n    tag_74:\n        /* \"#utility.yul\":1894:1929   */\n      swap1\n      pop\n        /* \"#utility.yul\":1831:1935   */\n      swap2\n      swap1\n      pop\n      jump\t// out\n        /* \"#utility.yul\":1941:2079   */\n    tag_42:\n        /* \"#utility.yul\":2022:2054   */\n      tag_76\n        /* \"#utility.yul\":2048:2053   */\n      dup2\n        /* \"#utility.yul\":2022:2054   */\n      tag_41\n      jump\t// in\n    tag_76:\n        /* \"#utility.yul\":2015:2020   */\n      dup2\n        /* \"#utility.yul\":2012:2055   */\n      eq\n        /* \"#utility.yul\":2002:2073   */\n      tag_77\n      jumpi\n        /* \"#utility.yul\":2069:2070   */\n      0x00\n        /* \"#utility.yul\":2066:2067   */\n      dup1\n        /* \"#utility.yul\":2059:2071   */\n      revert\n        /* \"#utility.yul\":2002:2073   */\n    tag_77:\n        /* \"#utility.yul\":1941:2079   */\n      pop\n      jump\t// out\n        /* \"#utility.yul\":2085:2240   */\n    tag_43:\n        /* \"#utility.yul\":2139:2144   */\n      0x00\n        /* \"#utility.yul\":2177:2183   */\n      dup2\n        /* \"#utility.yul\":2164:2184   */\n      calldataload\n        /* \"#utility.yul\":2155:2184   */\n      swap1\n      pop\n        /* \"#utility.yul\":2193:2234   */\n      tag_79\n        /* \"#utility.yul\":2228:2233   */\n      dup2\n        /* \"#utility.yul\":2193:2234   */\n      tag_42\n      jump\t// in\n    tag_79:\n        /* \"#utility.yul\":2085:2240   */\n      swap3\n      swap2\n      pop\n      pop\n      jump\t// out\n        /* \"#utility.yul\":2246:2368   */\n    tag_44:\n        /* \"#utility.yul\":2319:2343   */\n      tag_81\n        /* \"#utility.yul\":2337:2342   */\n      dup2\n        /* \"#utility.yul\":2319:2343   */\n      tag_39\n      jump\t// in\n    tag_81:\n        /* \"#utility.yul\":2312:2317   */\n      dup2\n        /* \"#utility.yul\":2309:2344   */\n      eq\n        /* \"#utility.yul\":2299:2362   */\n      tag_82\n      jumpi\n        /* \"#utility.yul\":2358:2359   */\n      0x00\n        /* \"#utility.yul\":2355:2356   */\n      dup1\n        /* \"#utility.yul\":2348:2360   */\n      revert\n        /* \"#utility.yul\":2299:2362   */\n    tag_82:\n        /* \"#utility.yul\":2246:2368   */\n      pop\n      jump\t// out\n        /* \"#utility.yul\":2374:2513   */\n    tag_45:\n        /* \"#utility.yul\":2420:2425   */\n      0x00\n        /* \"#utility.yul\":2458:2464   */\n      dup2\n        /* \"#utility.yul\":2445:2465   */\n      calldataload\n        /* \"#utility.yul\":2436:2465   */\n      swap1\n      pop\n        /* \"#utility.yul\":2474:2507   */\n      tag_84\n        /* \"#utility.yul\":2501:2506   */\n      dup2\n        /* \"#utility.yul\":2474:2507   */\n      tag_44\n      jump\t// in\n    tag_84:\n        /* \"#utility.yul\":2374:2513   */\n      swap3\n      swap2\n      pop\n      pop\n      jump\t// out\n        /* \"#utility.yul\":2519:3009   */\n    tag_17:\n        /* \"#utility.yul\":2595:2601   */\n      0x00\n        /* \"#utility.yul\":2603:2609   */\n      dup1\n        /* \"#utility.yul\":2652:2654   */\n      0x40\n        /* \"#utility.yul\":2640:2649   */\n      dup4\n        /* \"#utility.yul\":2631:2638   */\n      dup6\n        /* \"#utility.yul\":2627:2650   */\n      sub\n        /* \"#utility.yul\":2623:2655   */\n      slt\n        /* \"#utility.yul\":2620:2739   */\n      iszero\n      tag_86\n      jumpi\n        /* \"#utility.yul\":2658:2737   */\n      tag_87\n      tag_33\n      jump\t// in\n    tag_87:\n        /* \"#utility.yul\":2620:2739   */\n    tag_86:\n        /* \"#utility.yul\":2778:2779   */\n      0x00\n        /* \"#utility.yul\":2803:2864   */\n      tag_88\n        /* \"#utility.yul\":2856:2863   */\n      dup6\n        /* \"#utility.yul\":2847:2853   */\n      dup3\n        /* \"#utility.yul\":2836:2845   */\n      dup7\n        /* \"#utility.yul\":2832:2854   */\n      add\n        /* \"#utility.yul\":2803:2864   */\n      tag_43\n      jump\t// in\n    tag_88:\n        /* \"#utility.yul\":2793:2864   */\n      swap3\n      pop\n        /* \"#utility.yul\":2749:2874   */\n      pop\n        /* \"#utility.yul\":2913:2915   */\n      0x20\n        /* \"#utility.yul\":2939:2992   */\n      tag_89\n        /* \"#utility.yul\":2984:2991   */\n      dup6\n        /* \"#utility.yul\":2975:2981   */\n      dup3\n        /* \"#utility.yul\":2964:2973   */\n      dup7\n        /* \"#utility.yul\":2960:2982   */\n      add\n        /* \"#utility.yul\":2939:2992   */\n      tag_45\n      jump\t// in\n    tag_89:\n        /* \"#utility.yul\":2929:2992   */\n      swap2\n      pop\n        /* \"#utility.yul\":2884:3002   */\n      pop\n        /* \"#utility.yul\":2519:3009   */\n      swap3\n      pop\n      swap3\n      swap1\n      pop\n      jump\t// out\n        /* \"#utility.yul\":3015:3195   */\n    tag_46:\n        /* \"#utility.yul\":3063:3140   */\n      0x4e487b7100000000000000000000000000000000000000000000000000000000\n        /* \"#utility.yul\":3060:3061   */\n      0x00\n        /* \"#utility.yul\":3053:3141   */\n      mstore\n        /* \"#utility.yul\":3160:3164   */\n      0x11\n        /* \"#utility.yul\":3157:3158   */\n      0x04\n        /* \"#utility.yul\":3150:3165   */\n      mstore\n        /* \"#utility.yul\":3184:3188   */\n      0x24\n        /* \"#utility.yul\":3181:3182   */\n      0x00\n        /* \"#utility.yul\":3174:3189   */\n      revert\n        /* \"#utility.yul\":3201:3506   */\n    tag_21:\n        /* \"#utility.yul\":3241:3244   */\n      0x00\n        /* \"#utility.yul\":3260:3280   */\n      tag_92\n        /* \"#utility.yul\":3278:3279   */\n      dup3\n        /* \"#utility.yul\":3260:3280   */\n      tag_39\n      jump\t// in\n    tag_92:\n        /* \"#utility.yul\":3255:3280   */\n      swap2\n      pop\n        /* \"#utility.yul\":3294:3314   */\n      tag_93\n        /* \"#utility.yul\":3312:3313   */\n      dup4\n        /* \"#utility.yul\":3294:3314   */\n      tag_39\n      jump\t// in\n    tag_93:\n        /* \"#utility.yul\":3289:3314   */\n      swap3\n      pop\n        /* \"#utility.yul\":3448:3449   */\n      dup3\n        /* \"#utility.yul\":3380:3446   */\n      0xffffffffffffffffffffffffffffffffffffffffffffffffffffffffffffffff\n        /* \"#utility.yul\":3376:3450   */\n      sub\n        /* \"#utility.yul\":3373:3374   */\n      dup3\n        /* \"#utility.yul\":3370:3451   */\n      gt\n        /* \"#utility.yul\":3367:3474   */\n      iszero\n      tag_94\n      jumpi\n        /* \"#utility.yul\":3454:3472   */\n      tag_95\n      tag_46\n      jump\t// in\n    tag_95:\n        /* \"#utility.yul\":3367:3474   */\n    tag_94:\n        /* \"#utility.yul\":3498:3499   */\n      dup3\n        /* \"#utility.yul\":3495:3496   */\n      dup3\n        /* \"#utility.yul\":3491:3500   */\n      add\n        /* \"#utility.yul\":3484:3500   */\n      swap1\n      pop\n        /* \"#utility.yul\":3201:3506   */\n      swap3\n      swap2\n      pop\n      pop\n      jump\t// out\n        /* \"#utility.yul\":3512:3681   */\n    tag_47:\n        /* \"#utility.yul\":3596:3607   */\n      0x00\n        /* \"#utility.yul\":3630:3636   */\n      dup3\n        /* \"#utility.yul\":3625:3628   */\n      dup3\n        /* \"#utility.yul\":3618:3637   */\n      mstore\n        /* \"#utility.yul\":3670:3674   */\n      0x20\n        /* \"#utility.yul\":3665:3668   */\n      dup3\n        /* \"#utility.yul\":3661:3675   */\n      add\n        /* \"#utility.yul\":3646:3675   */\n      swap1\n      pop\n        /* \"#utility.yul\":3512:3681   */\n      swap3\n      swap2\n      pop\n      pop\n      jump\t// out\n        /* \"#utility.yul\":3687:3857   */\n    tag_48:\n        /* \"#utility.yul\":3827:3849   */\n      0x496e73756666696369656e742062616c616e6365000000000000000000000000\n        /* \"#utility.yul\":3823:3824   */\n      0x00\n        /* \"#utility.yul\":3815:3821   */\n      dup3\n        /* \"#utility.yul\":3811:3825   */\n      add\n        /* \"#utility.yul\":3804:3850   */\n      mstore\n        /* \"#utility.yul\":3687:3857   */\n      pop\n      jump\t// out\n        /* \"#utility.yul\":3863:4229   */\n    tag_49:\n        /* \"#utility.yul\":4005:4008   */\n      0x00\n        /* \"#utility.yul\":4026:4093   */\n      tag_99\n        /* \"#utility.yul\":4090:4092   */\n      0x14\n        /* \"#utility.yul\":4085:4088   */\n      dup4\n        /* \"#utility.yul\":4026:4093   */\n      tag_47\n      jump\t// in\n    tag_99:\n        /* \"#utility.yul\":4019:4093   */\n      swap2\n      pop\n        /* \"#utility.yul\":4102:4195   */\n      tag_100\n        /* \"#utility.yul\":4191:4194   */\n      dup3\n        /* \"#utility.yul\":4102:4195   */\n      tag_48\n      jump\t// in\n    tag_100:\n        /* \"#utility.yul\":4220:4222   */\n      0x20\n        /* \"#utility.yul\":4215:4218   */\n      dup3\n        /* \"#utility.yul\":4211:4223   */\n      add\n        /* \"#utility.yul\":4204:4223   */\n      swap1\n      pop\n        /* \"#utility.yul\":3863:4229   */\n      swap2\n      swap1\n      pop\n      jump\t// out\n        /* \"#utility.yul\":4235:4654   */\n    tag_26:\n        /* \"#utility.yul\":4401:4405   */\n      0x00\n        /* \"#utility.yul\":4439:4441   */\n      0x20\n        /* \"#utility.yul\":4428:4437   */\n      dup3\n        /* \"#utility.yul\":4424:4442   */\n      add\n        /* \"#utility.yul\":4416:4442   */\n      swap1\n      pop\n        /* \"#utility.yul\":4488:4497   */\n      dup2\n        /* \"#utility.yul\":4482:4486   */\n      dup2\n        /* \"#utility.yul\":4478:4498   */\n      sub\n        /* \"#utility.yul\":4474:4475   */\n      0x00\n        /* \"#utility.yul\":4463:4472   */\n      dup4\n        /* \"#utility.yul\":4459:4476   */\n      add\n        /* \"#utility.yul\":4452:4499   */\n      mstore\n        /* \"#utility.yul\":4516:4647   */\n      tag_102\n        /* \"#utility.yul\":4642:4646   */\n      dup2\n        /* \"#utility.yul\":4516:4647   */\n      tag_49\n      jump\t// in\n    tag_102:\n        /* \"#utility.yul\":4508:4647   */\n      swap1\n      pop\n        /* \"#utility.yul\":4235:4654   */\n      swap2\n      swap1\n      pop\n      jump\t// out\n        /* \"#utility.yul\":4660:4851   */\n    tag_28:\n        /* \"#utility.yul\":4700:4704   */\n      0x00\n        /* \"#utility.yul\":4720:4740   */\n      tag_104\n        /* \"#utility.yul\":4738:4739   */\n      dup3\n        /* \"#utility.yul\":4720:4740   */\n      tag_39\n      jump\t// in\n    tag_104:\n        /* \"#utility.yul\":4715:4740   */\n      swap2\n      pop\n        /* \"#utility.yul\":4754:4774   */\n      tag_105\n        /* \"#utility.yul\":4772:4773   */\n      dup4\n        /* \"#utility.yul\":4754:4774   */\n      tag_39\n      jump\t// in\n    tag_105:\n        /* \"#utility.yul\":4749:4774   */\n      swap3\n      pop\n        /* \"#utility.yul\":4793:4794   */\n      dup3\n        /* \"#utility.yul\":4790:4791   */\n      dup3\n        /* \"#utility.yul\":4787:4795   */\n      lt\n        /* \"#utility.yul\":4784:4818   */\n      iszero\n      tag_106\n      jumpi\n        /* \"#utility.yul\":4798:4816   */\n      tag_107\n      tag_46\n      jump\t// in\n    tag_107:\n        /* \"#utility.yul\":4784:4818   */\n    tag_106:\n        /* \"#utility.yul\":4843:4844   */\n      dup3\n        /* \"#utility.yul\":4840:4841   */\n      dup3\n        /* \"#utility.yul\":4836:4845   */\n      sub\n        /* \"#utility.yul\":4828:4845   */\n      swap1\n      pop\n        /* \"#utility.yul\":4660:4851   */\n      swap3\n      swap2\n      pop\n      pop\n      jump\t// out\n\n    auxdata: 0xa2646970667358221220dc88bbb0f697bd4f4f2615a46d384c4da428bd5a66f0752bb2feb9c6aeab71c264736f6c634300080f0033\n}\n",
				"bytecode": {
					"linkReferences": {},
					"object": "608060405234801561001057600080fd5b5061078e806100206000396000f3fe6080604052600436106100345760003560e01c806305cfe9741461003957806327e235e314610043578063f274c89714610082575b600080fd5b6100416100ab565b005b34801561004f57600080fd5b5061006a600480360381019061006591906104fb565b610223565b60405161007993929190610541565b60405180910390f35b34801561008e57600080fd5b506100a960048036038101906100a491906105e2565b61024d565b005b346000803373ffffffffffffffffffffffffffffffffffffffff1673ffffffffffffffffffffffffffffffffffffffff16815260200190815260200160002060000160008282546100fc9190610651565b9250508190555060006040518060400160405280348152602001428152509050806000803373ffffffffffffffffffffffffffffffffffffffff1673ffffffffffffffffffffffffffffffffffffffff16815260200190815260200160002060020160008060003373ffffffffffffffffffffffffffffffffffffffff1673ffffffffffffffffffffffffffffffffffffffff168152602001908152602001600020600101548152602001908152602001600020600082015181600001556020820151816001015590505060016000803373ffffffffffffffffffffffffffffffffffffffff1673ffffffffffffffffffffffffffffffffffffffff16815260200190815260200160002060010160008282546102199190610651565b9250508190555050565b60006020528060005260406000206000915090508060000154908060010154908060030154905083565b60008060003373ffffffffffffffffffffffffffffffffffffffff1673ffffffffffffffffffffffffffffffffffffffff168152602001908152602001600020600001549050818110156102d6576040517f08c379a00000000000000000000000000000000000000000000000000000000081526004016102cd90610704565b60405180910390fd5b816000803373ffffffffffffffffffffffffffffffffffffffff1673ffffffffffffffffffffffffffffffffffffffff16815260200190815260200160002060000160008282546103279190610724565b9250508190555060006040518060400160405280848152602001428152509050806000803373ffffffffffffffffffffffffffffffffffffffff1673ffffffffffffffffffffffffffffffffffffffff16815260200190815260200160002060040160008060003373ffffffffffffffffffffffffffffffffffffffff1673ffffffffffffffffffffffffffffffffffffffff168152602001908152602001600020600301548152602001908152602001600020600082015181600001556020820151816001015590505060016000803373ffffffffffffffffffffffffffffffffffffffff1673ffffffffffffffffffffffffffffffffffffffff16815260200190815260200160002060030160008282546104449190610651565b925050819055508373ffffffffffffffffffffffffffffffffffffffff166108fc849081150290604051600060405180830381858888f19350505050158015610491573d6000803e3d6000fd5b5050505050565b600080fd5b600073ffffffffffffffffffffffffffffffffffffffff82169050919050565b60006104c88261049d565b9050919050565b6104d8816104bd565b81146104e357600080fd5b50565b6000813590506104f5816104cf565b92915050565b60006020828403121561051157610510610498565b5b600061051f848285016104e6565b91505092915050565b6000819050919050565b61053b81610528565b82525050565b60006060820190506105566000830186610532565b6105636020830185610532565b6105706040830184610532565b949350505050565b60006105838261049d565b9050919050565b61059381610578565b811461059e57600080fd5b50565b6000813590506105b08161058a565b92915050565b6105bf81610528565b81146105ca57600080fd5b50565b6000813590506105dc816105b6565b92915050565b600080604083850312156105f9576105f8610498565b5b6000610607858286016105a1565b9250506020610618858286016105cd565b9150509250929050565b7f4e487b7100000000000000000000000000000000000000000000000000000000600052601160045260246000fd5b600061065c82610528565b915061066783610528565b9250827fffffffffffffffffffffffffffffffffffffffffffffffffffffffffffffffff0382111561069c5761069b610622565b5b828201905092915050565b600082825260208201905092915050565b7f496e73756666696369656e742062616c616e6365000000000000000000000000600082015250565b60006106ee6014836106a7565b91506106f9826106b8565b602082019050919050565b6000602082019050818103600083015261071d816106e1565b9050919050565b600061072f82610528565b915061073a83610528565b92508282101561074d5761074c610622565b5b82820390509291505056fea2646970667358221220dc88bbb0f697bd4f4f2615a46d384c4da428bd5a66f0752bb2feb9c6aeab71c264736f6c634300080f0033",
					"opcodes": "PUSH1 0x80 PUSH1 0x40 MSTORE CALLVALUE DUP1 ISZERO PUSH2 0x10 JUMPI PUSH1 0x0 DUP1 REVERT JUMPDEST POP PUSH2 0x78E DUP1 PUSH2 0x20 PUSH1 0x0 CODECOPY PUSH1 0x0 RETURN INVALID PUSH1 0x80 PUSH1 0x40 MSTORE PUSH1 0x4 CALLDATASIZE LT PUSH2 0x34 JUMPI PUSH1 0x0 CALLDATALOAD PUSH1 0xE0 SHR DUP1 PUSH4 0x5CFE974 EQ PUSH2 0x39 JUMPI DUP1 PUSH4 0x27E235E3 EQ PUSH2 0x43 JUMPI DUP1 PUSH4 0xF274C897 EQ PUSH2 0x82 JUMPI JUMPDEST PUSH1 0x0 DUP1 REVERT JUMPDEST PUSH2 0x41 PUSH2 0xAB JUMP JUMPDEST STOP JUMPDEST CALLVALUE DUP1 ISZERO PUSH2 0x4F JUMPI PUSH1 0x0 DUP1 REVERT JUMPDEST POP PUSH2 0x6A PUSH1 0x4 DUP1 CALLDATASIZE SUB DUP2 ADD SWAP1 PUSH2 0x65 SWAP2 SWAP1 PUSH2 0x4FB JUMP JUMPDEST PUSH2 0x223 JUMP JUMPDEST PUSH1 0x40 MLOAD PUSH2 0x79 SWAP4 SWAP3 SWAP2 SWAP1 PUSH2 0x541 JUMP JUMPDEST PUSH1 0x40 MLOAD DUP1 SWAP2 SUB SWAP1 RETURN JUMPDEST CALLVALUE DUP1 ISZERO PUSH2 0x8E JUMPI PUSH1 0x0 DUP1 REVERT JUMPDEST POP PUSH2 0xA9 PUSH1 0x4 DUP1 CALLDATASIZE SUB DUP2 ADD SWAP1 PUSH2 0xA4 SWAP2 SWAP1 PUSH2 0x5E2 JUMP JUMPDEST PUSH2 0x24D JUMP JUMPDEST STOP JUMPDEST CALLVALUE PUSH1 0x0 DUP1 CALLER PUSH20 0xFFFFFFFFFFFFFFFFFFFFFFFFFFFFFFFFFFFFFFFF AND PUSH20 0xFFFFFFFFFFFFFFFFFFFFFFFFFFFFFFFFFFFFFFFF AND DUP2 MSTORE PUSH1 0x20 ADD SWAP1 DUP2 MSTORE PUSH1 0x20 ADD PUSH1 0x0 KECCAK256 PUSH1 0x0 ADD PUSH1 0x0 DUP3 DUP3 SLOAD PUSH2 0xFC SWAP2 SWAP1 PUSH2 0x651 JUMP JUMPDEST SWAP3 POP POP DUP2 SWAP1 SSTORE POP PUSH1 0x0 PUSH1 0x40 MLOAD DUP1 PUSH1 0x40 ADD PUSH1 0x40 MSTORE DUP1 CALLVALUE DUP2 MSTORE PUSH1 0x20 ADD TIMESTAMP DUP2 MSTORE POP SWAP1 POP DUP1 PUSH1 0x0 DUP1 CALLER PUSH20 0xFFFFFFFFFFFFFFFFFFFFFFFFFFFFFFFFFFFFFFFF AND PUSH20 0xFFFFFFFFFFFFFFFFFFFFFFFFFFFFFFFFFFFFFFFF AND DUP2 MSTORE PUSH1 0x20 ADD SWAP1 DUP2 MSTORE PUSH1 0x20 ADD PUSH1 0x0 KECCAK256 PUSH1 0x2 ADD PUSH1 0x0 DUP1 PUSH1 0x0 CALLER PUSH20 0xFFFFFFFFFFFFFFFFFFFFFFFFFFFFFFFFFFFFFFFF AND PUSH20 0xFFFFFFFFFFFFFFFFFFFFFFFFFFFFFFFFFFFFFFFF AND DUP2 MSTORE PUSH1 0x20 ADD SWAP1 DUP2 MSTORE PUSH1 0x20 ADD PUSH1 0x0 KECCAK256 PUSH1 0x1 ADD SLOAD DUP2 MSTORE PUSH1 0x20 ADD SWAP1 DUP2 MSTORE PUSH1 0x20 ADD PUSH1 0x0 KECCAK256 PUSH1 0x0 DUP3 ADD MLOAD DUP2 PUSH1 0x0 ADD SSTORE PUSH1 0x20 DUP3 ADD MLOAD DUP2 PUSH1 0x1 ADD SSTORE SWAP1 POP POP PUSH1 0x1 PUSH1 0x0 DUP1 CALLER PUSH20 0xFFFFFFFFFFFFFFFFFFFFFFFFFFFFFFFFFFFFFFFF AND PUSH20 0xFFFFFFFFFFFFFFFFFFFFFFFFFFFFFFFFFFFFFFFF AND DUP2 MSTORE PUSH1 0x20 ADD SWAP1 DUP2 MSTORE PUSH1 0x20 ADD PUSH1 0x0 KECCAK256 PUSH1 0x1 ADD PUSH1 0x0 DUP3 DUP3 SLOAD PUSH2 0x219 SWAP2 SWAP1 PUSH2 0x651 JUMP JUMPDEST SWAP3 POP POP DUP2 SWAP1 SSTORE POP POP JUMP JUMPDEST PUSH1 0x0 PUSH1 0x20 MSTORE DUP1 PUSH1 0x0 MSTORE PUSH1 0x40 PUSH1 0x0 KECCAK256 PUSH1 0x0 SWAP2 POP SWAP1 POP DUP1 PUSH1 0x0 ADD SLOAD SWAP1 DUP1 PUSH1 0x1 ADD SLOAD SWAP1 DUP1 PUSH1 0x3 ADD SLOAD SWAP1 POP DUP4 JUMP JUMPDEST PUSH1 0x0 DUP1 PUSH1 0x0 CALLER PUSH20 0xFFFFFFFFFFFFFFFFFFFFFFFFFFFFFFFFFFFFFFFF AND PUSH20 0xFFFFFFFFFFFFFFFFFFFFFFFFFFFFFFFFFFFFFFFF AND DUP2 MSTORE PUSH1 0x20 ADD SWAP1 DUP2 MSTORE PUSH1 0x20 ADD PUSH1 0x0 KECCAK256 PUSH1 0x0 ADD SLOAD SWAP1 POP DUP2 DUP2 LT ISZERO PUSH2 0x2D6 JUMPI PUSH1 0x40 MLOAD PUSH32 0x8C379A000000000000000000000000000000000000000000000000000000000 DUP2 MSTORE PUSH1 0x4 ADD PUSH2 0x2CD SWAP1 PUSH2 0x704 JUMP JUMPDEST PUSH1 0x40 MLOAD DUP1 SWAP2 SUB SWAP1 REVERT JUMPDEST DUP2 PUSH1 0x0 DUP1 CALLER PUSH20 0xFFFFFFFFFFFFFFFFFFFFFFFFFFFFFFFFFFFFFFFF AND PUSH20 0xFFFFFFFFFFFFFFFFFFFFFFFFFFFFFFFFFFFFFFFF AND DUP2 MSTORE PUSH1 0x20 ADD SWAP1 DUP2 MSTORE PUSH1 0x20 ADD PUSH1 0x0 KECCAK256 PUSH1 0x0 ADD PUSH1 0x0 DUP3 DUP3 SLOAD PUSH2 0x327 SWAP2 SWAP1 PUSH2 0x724 JUMP JUMPDEST SWAP3 POP POP DUP2 SWAP1 SSTORE POP PUSH1 0x0 PUSH1 0x40 MLOAD DUP1 PUSH1 0x40 ADD PUSH1 0x40 MSTORE DUP1 DUP5 DUP2 MSTORE PUSH1 0x20 ADD TIMESTAMP DUP2 MSTORE POP SWAP1 POP DUP1 PUSH1 0x0 DUP1 CALLER PUSH20 0xFFFFFFFFFFFFFFFFFFFFFFFFFFFFFFFFFFFFFFFF AND PUSH20 0xFFFFFFFFFFFFFFFFFFFFFFFFFFFFFFFFFFFFFFFF AND DUP2 MSTORE PUSH1 0x20 ADD SWAP1 DUP2 MSTORE PUSH1 0x20 ADD PUSH1 0x0 KECCAK256 PUSH1 0x4 ADD PUSH1 0x0 DUP1 PUSH1 0x0 CALLER PUSH20 0xFFFFFFFFFFFFFFFFFFFFFFFFFFFFFFFFFFFFFFFF AND PUSH20 0xFFFFFFFFFFFFFFFFFFFFFFFFFFFFFFFFFFFFFFFF AND DUP2 MSTORE PUSH1 0x20 ADD SWAP1 DUP2 MSTORE PUSH1 0x20 ADD PUSH1 0x0 KECCAK256 PUSH1 0x3 ADD SLOAD DUP2 MSTORE PUSH1 0x20 ADD SWAP1 DUP2 MSTORE PUSH1 0x20 ADD PUSH1 0x0 KECCAK256 PUSH1 0x0 DUP3 ADD MLOAD DUP2 PUSH1 0x0 ADD SSTORE PUSH1 0x20 DUP3 ADD MLOAD DUP2 PUSH1 0x1 ADD SSTORE SWAP1 POP POP PUSH1 0x1 PUSH1 0x0 DUP1 CALLER PUSH20 0xFFFFFFFFFFFFFFFFFFFFFFFFFFFFFFFFFFFFFFFF AND PUSH20 0xFFFFFFFFFFFFFFFFFFFFFFFFFFFFFFFFFFFFFFFF AND DUP2 MSTORE PUSH1 0x20 ADD SWAP1 DUP2 MSTORE PUSH1 0x20 ADD PUSH1 0x0 KECCAK256 PUSH1 0x3 ADD PUSH1 0x0 DUP3 DUP3 SLOAD PUSH2 0x444 SWAP2 SWAP1 PUSH2 0x651 JUMP JUMPDEST SWAP3 POP POP DUP2 SWAP1 SSTORE POP DUP4 PUSH20 0xFFFFFFFFFFFFFFFFFFFFFFFFFFFFFFFFFFFFFFFF AND PUSH2 0x8FC DUP5 SWAP1 DUP2 ISZERO MUL SWAP1 PUSH1 0x40 MLOAD PUSH1 0x0 PUSH1 0x40 MLOAD DUP1 DUP4 SUB DUP2 DUP6 DUP9 DUP9 CALL SWAP4 POP POP POP POP ISZERO DUP1 ISZERO PUSH2 0x491 JUMPI RETURNDATASIZE PUSH1 0x0 DUP1 RETURNDATACOPY RETURNDATASIZE PUSH1 0x0 REVERT JUMPDEST POP POP POP POP POP JUMP JUMPDEST PUSH1 0x0 DUP1 REVERT JUMPDEST PUSH1 0x0 PUSH20 0xFFFFFFFFFFFFFFFFFFFFFFFFFFFFFFFFFFFFFFFF DUP3 AND SWAP1 POP SWAP2 SWAP1 POP JUMP JUMPDEST PUSH1 0x0 PUSH2 0x4C8 DUP3 PUSH2 0x49D JUMP JUMPDEST SWAP1 POP SWAP2 SWAP1 POP JUMP JUMPDEST PUSH2 0x4D8 DUP2 PUSH2 0x4BD JUMP JUMPDEST DUP2 EQ PUSH2 0x4E3 JUMPI PUSH1 0x0 DUP1 REVERT JUMPDEST POP JUMP JUMPDEST PUSH1 0x0 DUP2 CALLDATALOAD SWAP1 POP PUSH2 0x4F5 DUP2 PUSH2 0x4CF JUMP JUMPDEST SWAP3 SWAP2 POP POP JUMP JUMPDEST PUSH1 0x0 PUSH1 0x20 DUP3 DUP5 SUB SLT ISZERO PUSH2 0x511 JUMPI PUSH2 0x510 PUSH2 0x498 JUMP JUMPDEST JUMPDEST PUSH1 0x0 PUSH2 0x51F DUP5 DUP3 DUP6 ADD PUSH2 0x4E6 JUMP JUMPDEST SWAP2 POP POP SWAP3 SWAP2 POP POP JUMP JUMPDEST PUSH1 0x0 DUP2 SWAP1 POP SWAP2 SWAP1 POP JUMP JUMPDEST PUSH2 0x53B DUP2 PUSH2 0x528 JUMP JUMPDEST DUP3 MSTORE POP POP JUMP JUMPDEST PUSH1 0x0 PUSH1 0x60 DUP3 ADD SWAP1 POP PUSH2 0x556 PUSH1 0x0 DUP4 ADD DUP7 PUSH2 0x532 JUMP JUMPDEST PUSH2 0x563 PUSH1 0x20 DUP4 ADD DUP6 PUSH2 0x532 JUMP JUMPDEST PUSH2 0x570 PUSH1 0x40 DUP4 ADD DUP5 PUSH2 0x532 JUMP JUMPDEST SWAP5 SWAP4 POP POP POP POP JUMP JUMPDEST PUSH1 0x0 PUSH2 0x583 DUP3 PUSH2 0x49D JUMP JUMPDEST SWAP1 POP SWAP2 SWAP1 POP JUMP JUMPDEST PUSH2 0x593 DUP2 PUSH2 0x578 JUMP JUMPDEST DUP2 EQ PUSH2 0x59E JUMPI PUSH1 0x0 DUP1 REVERT JUMPDEST POP JUMP JUMPDEST PUSH1 0x0 DUP2 CALLDATALOAD SWAP1 POP PUSH2 0x5B0 DUP2 PUSH2 0x58A JUMP JUMPDEST SWAP3 SWAP2 POP POP JUMP JUMPDEST PUSH2 0x5BF DUP2 PUSH2 0x528 JUMP JUMPDEST DUP2 EQ PUSH2 0x5CA JUMPI PUSH1 0x0 DUP1 REVERT JUMPDEST POP JUMP JUMPDEST PUSH1 0x0 DUP2 CALLDATALOAD SWAP1 POP PUSH2 0x5DC DUP2 PUSH2 0x5B6 JUMP JUMPDEST SWAP3 SWAP2 POP POP JUMP JUMPDEST PUSH1 0x0 DUP1 PUSH1 0x40 DUP4 DUP6 SUB SLT ISZERO PUSH2 0x5F9 JUMPI PUSH2 0x5F8 PUSH2 0x498 JUMP JUMPDEST JUMPDEST PUSH1 0x0 PUSH2 0x607 DUP6 DUP3 DUP7 ADD PUSH2 0x5A1 JUMP JUMPDEST SWAP3 POP POP PUSH1 0x20 PUSH2 0x618 DUP6 DUP3 DUP7 ADD PUSH2 0x5CD JUMP JUMPDEST SWAP2 POP POP SWAP3 POP SWAP3 SWAP1 POP JUMP JUMPDEST PUSH32 0x4E487B7100000000000000000000000000000000000000000000000000000000 PUSH1 0x0 MSTORE PUSH1 0x11 PUSH1 0x4 MSTORE PUSH1 0x24 PUSH1 0x0 REVERT JUMPDEST PUSH1 0x0 PUSH2 0x65C DUP3 PUSH2 0x528 JUMP JUMPDEST SWAP2 POP PUSH2 0x667 DUP4 PUSH2 0x528 JUMP JUMPDEST SWAP3 POP DUP3 PUSH32 0xFFFFFFFFFFFFFFFFFFFFFFFFFFFFFFFFFFFFFFFFFFFFFFFFFFFFFFFFFFFFFFFF SUB DUP3 GT ISZERO PUSH2 0x69C JUMPI PUSH2 0x69B PUSH2 0x622 JUMP JUMPDEST JUMPDEST DUP3 DUP3 ADD SWAP1 POP SWAP3 SWAP2 POP POP JUMP JUMPDEST PUSH1 0x0 DUP3 DUP3 MSTORE PUSH1 0x20 DUP3 ADD SWAP1 POP SWAP3 SWAP2 POP POP JUMP JUMPDEST PUSH32 0x496E73756666696369656E742062616C616E6365000000000000000000000000 PUSH1 0x0 DUP3 ADD MSTORE POP JUMP JUMPDEST PUSH1 0x0 PUSH2 0x6EE PUSH1 0x14 DUP4 PUSH2 0x6A7 JUMP JUMPDEST SWAP2 POP PUSH2 0x6F9 DUP3 PUSH2 0x6B8 JUMP JUMPDEST PUSH1 0x20 DUP3 ADD SWAP1 POP SWAP2 SWAP1 POP JUMP JUMPDEST PUSH1 0x0 PUSH1 0x20 DUP3 ADD SWAP1 POP DUP2 DUP2 SUB PUSH1 0x0 DUP4 ADD MSTORE PUSH2 0x71D DUP2 PUSH2 0x6E1 JUMP JUMPDEST SWAP1 POP SWAP2 SWAP1 POP JUMP JUMPDEST PUSH1 0x0 PUSH2 0x72F DUP3 PUSH2 0x528 JUMP JUMPDEST SWAP2 POP PUSH2 0x73A DUP4 PUSH2 0x528 JUMP JUMPDEST SWAP3 POP DUP3 DUP3 LT ISZERO PUSH2 0x74D JUMPI PUSH2 0x74C PUSH2 0x622 JUMP JUMPDEST JUMPDEST DUP3 DUP3 SUB SWAP1 POP SWAP3 SWAP2 POP POP JUMP INVALID LOG2 PUSH5 0x6970667358 0x22 SLT KECCAK256 0xDC DUP9 0xBB 0xB0 0xF6 SWAP8 0xBD 0x4F 0x4F 0x26 ISZERO LOG4 PUSH14 0x384C4DA428BD5A66F0752BB2FEB9 0xC6 0xAE 0xAB PUSH18 0xC264736F6C634300080F0033000000000000 "
				},
				"gasEstimates": {
					"creation": {
						"codeDepositCost": "386800",
						"executionCost": "424",
						"totalCost": "387224"
					},
					"external": {
						"balances(address)": "infinite",
						"despositMoney()": "infinite",
						"withdrawMoney(address,uint256)": "infinite"
					}
				},
				"methodIdentifiers": {
					"balances(address)": "27e235e3",
					"despositMoney()": "05cfe974",
					"withdrawMoney(address,uint256)": "f274c897"
				}
			},
			"storageLayout": {
				"storage": [
					{
						"astId": 28,
						"contract": "contracts/ExampleMappingStruct.sol:WalletWithStructMapping",
						"label": "balances",
						"offset": 0,
						"slot": "0",
						"type": "t_mapping(t_address,t_struct(Balance)23_storage)"
					}
				],
				"types": {
					"t_address": {
						"encoding": "inplace",
						"label": "address",
						"numberOfBytes": "20"
					},
					"t_mapping(t_address,t_struct(Balance)23_storage)": {
						"encoding": "mapping",
						"key": "t_address",
						"label": "mapping(address => struct WalletWithStructMapping.Balance)",
						"numberOfBytes": "32",
						"value": "t_struct(Balance)23_storage"
					},
					"t_mapping(t_uint256,t_struct(Transaction)6_storage)": {
						"encoding": "mapping",
						"key": "t_uint256",
						"label": "mapping(uint256 => struct WalletWithStructMapping.Transaction)",
						"numberOfBytes": "32",
						"value": "t_struct(Transaction)6_storage"
					},
					"t_struct(Balance)23_storage": {
						"encoding": "inplace",
						"label": "struct WalletWithStructMapping.Balance",
						"members": [
							{
								"astId": 8,
								"contract": "contracts/ExampleMappingStruct.sol:WalletWithStructMapping",
								"label": "totalBalance",
								"offset": 0,
								"slot": "0",
								"type": "t_uint256"
							},
							{
								"astId": 10,
								"contract": "contracts/ExampleMappingStruct.sol:WalletWithStructMapping",
								"label": "numberOfDeposits",
								"offset": 0,
								"slot": "1",
								"type": "t_uint256"
							},
							{
								"astId": 15,
								"contract": "contracts/ExampleMappingStruct.sol:WalletWithStructMapping",
								"label": "deposits",
								"offset": 0,
								"slot": "2",
								"type": "t_mapping(t_uint256,t_struct(Transaction)6_storage)"
							},
							{
								"astId": 17,
								"contract": "contracts/ExampleMappingStruct.sol:WalletWithStructMapping",
								"label": "numberOfWithdrawls",
								"offset": 0,
								"slot": "3",
								"type": "t_uint256"
							},
							{
								"astId": 22,
								"contract": "contracts/ExampleMappingStruct.sol:WalletWithStructMapping",
								"label": "withdraws",
								"offset": 0,
								"slot": "4",
								"type": "t_mapping(t_uint256,t_struct(Transaction)6_storage)"
							}
						],
						"numberOfBytes": "160"
					},
					"t_struct(Transaction)6_storage": {
						"encoding": "inplace",
						"label": "struct WalletWithStructMapping.Transaction",
						"members": [
							{
								"astId": 3,
								"contract": "contracts/ExampleMappingStruct.sol:WalletWithStructMapping",
								"label": "amount",
								"offset": 0,
								"slot": "0",
								"type": "t_uint256"
							},
							{
								"astId": 5,
								"contract": "contracts/ExampleMappingStruct.sol:WalletWithStructMapping",
								"label": "timestamp",
								"offset": 0,
								"slot": "1",
								"type": "t_uint256"
							}
						],
						"numberOfBytes": "64"
					},
					"t_uint256": {
						"encoding": "inplace",
						"label": "uint256",
						"numberOfBytes": "32"
					}
				}
			},
			"userdoc": {
				"kind": "user",
				"methods": {},
				"version": 1
			}
		}
	}
}