{
	"contracts/ExampleExceptionRequire.sol": {
		"ExampleExceptionReqire": {
			"abi": [
				{
					"inputs": [
						{
							"internalType": "address",
							"name": "",
							"type": "address"
						}
					],
					"name": "balanceReceived",
					"outputs": [
						{
							"internalType": "uint8",
							"name": "",
							"type": "uint8"
						}
					],
					"stateMutability": "view",
					"type": "function"
				},
				{
					"inputs": [],
					"name": "receiveMoney",
					"outputs": [],
					"stateMutability": "payable",
					"type": "function"
				},
				{
					"inputs": [
						{
							"internalType": "address payable",
							"name": "_to",
							"type": "address"
						},
						{
							"internalType": "uint8",
							"name": "_amount",
							"type": "uint8"
						}
					],
					"name": "withdrawMoney",
					"outputs": [],
					"stateMutability": "payable",
					"type": "function"
				}
			],
			"devdoc": {
				"kind": "dev",
				"methods": {},
				"version": 1
			},
			"evm": {
				"assembly": "    /* \"contracts/ExampleExceptionRequire.sol\":56:547  contract ExampleExceptionReqire {... */\n  mstore(0x40, 0x80)\n  callvalue\n  dup1\n  iszero\n  tag_1\n  jumpi\n  0x00\n  dup1\n  revert\ntag_1:\n  pop\n  dataSize(sub_0)\n  dup1\n  dataOffset(sub_0)\n  0x00\n  codecopy\n  0x00\n  return\nstop\n\nsub_0: assembly {\n        /* \"contracts/ExampleExceptionRequire.sol\":56:547  contract ExampleExceptionReqire {... */\n      mstore(0x40, 0x80)\n      jumpi(tag_1, lt(calldatasize, 0x04))\n      shr(0xe0, calldataload(0x00))\n      dup1\n      0x67c114b8\n      eq\n      tag_2\n      jumpi\n      dup1\n      0x6d26ec18\n      eq\n      tag_3\n      jumpi\n      dup1\n      0xd18a42e1\n      eq\n      tag_4\n      jumpi\n    tag_1:\n      0x00\n      dup1\n      revert\n        /* \"contracts/ExampleExceptionRequire.sol\":305:545  function withdrawMoney(address payable _to, uint8 _amount) public payable {... */\n    tag_2:\n      tag_5\n      0x04\n      dup1\n      calldatasize\n      sub\n      0x40\n      dup2\n      lt\n      iszero\n      tag_6\n      jumpi\n      0x00\n      dup1\n      revert\n    tag_6:\n      dup2\n      add\n      swap1\n      dup1\n      dup1\n      calldataload\n      0xffffffffffffffffffffffffffffffffffffffff\n      and\n      swap1\n      0x20\n      add\n      swap1\n      swap3\n      swap2\n      swap1\n      dup1\n      calldataload\n      0xff\n      and\n      swap1\n      0x20\n      add\n      swap1\n      swap3\n      swap2\n      swap1\n      pop\n      pop\n      pop\n      tag_7\n      jump\t// in\n    tag_5:\n      stop\n        /* \"contracts/ExampleExceptionRequire.sol\":149:299  function receiveMoney() public payable {... */\n    tag_3:\n      tag_8\n      tag_9\n      jump\t// in\n    tag_8:\n      stop\n        /* \"contracts/ExampleExceptionRequire.sol\":94:142  mapping(address => uint8) public balanceReceived */\n    tag_4:\n      callvalue\n      dup1\n      iszero\n      tag_10\n      jumpi\n      0x00\n      dup1\n      revert\n    tag_10:\n      pop\n      tag_11\n      0x04\n      dup1\n      calldatasize\n      sub\n      0x20\n      dup2\n      lt\n      iszero\n      tag_12\n      jumpi\n      0x00\n      dup1\n      revert\n    tag_12:\n      dup2\n      add\n      swap1\n      dup1\n      dup1\n      calldataload\n      0xffffffffffffffffffffffffffffffffffffffff\n      and\n      swap1\n      0x20\n      add\n      swap1\n      swap3\n      swap2\n      swap1\n      pop\n      pop\n      pop\n      tag_13\n      jump\t// in\n    tag_11:\n      mload(0x40)\n      dup1\n      dup3\n      0xff\n      and\n      dup2\n      mstore\n      0x20\n      add\n      swap2\n      pop\n      pop\n      mload(0x40)\n      dup1\n      swap2\n      sub\n      swap1\n      return\n        /* \"contracts/ExampleExceptionRequire.sol\":305:545  function withdrawMoney(address payable _to, uint8 _amount) public payable {... */\n    tag_7:\n        /* \"contracts/ExampleExceptionRequire.sol\":408:423  balanceReceived */\n      0x00\n        /* \"contracts/ExampleExceptionRequire.sol\":408:435  balanceReceived[msg.sender] */\n      dup1\n        /* \"contracts/ExampleExceptionRequire.sol\":424:434  msg.sender */\n      caller\n        /* \"contracts/ExampleExceptionRequire.sol\":408:435  balanceReceived[msg.sender] */\n      0xffffffffffffffffffffffffffffffffffffffff\n      and\n      0xffffffffffffffffffffffffffffffffffffffff\n      and\n      dup2\n      mstore\n      0x20\n      add\n      swap1\n      dup2\n      mstore\n      0x20\n      add\n      0x00\n      keccak256\n      0x00\n      swap1\n      sload\n      swap1\n      0x0100\n      exp\n      swap1\n      div\n      0xff\n      and\n        /* \"contracts/ExampleExceptionRequire.sol\":397:435  _amount <= balanceReceived[msg.sender] */\n      0xff\n      and\n        /* \"contracts/ExampleExceptionRequire.sol\":397:404  _amount */\n      dup2\n        /* \"contracts/ExampleExceptionRequire.sol\":397:435  _amount <= balanceReceived[msg.sender] */\n      0xff\n      and\n      gt\n      iszero\n        /* \"contracts/ExampleExceptionRequire.sol\":389:458  require(_amount <= balanceReceived[msg.sender], \"Not enough founds.\") */\n      tag_15\n      jumpi\n      mload(0x40)\n      0x08c379a000000000000000000000000000000000000000000000000000000000\n      dup2\n      mstore\n      0x04\n      add\n      dup1\n      dup1\n      0x20\n      add\n      dup3\n      dup2\n      sub\n      dup3\n      mstore\n      0x12\n      dup2\n      mstore\n      0x20\n      add\n      dup1\n      0x4e6f7420656e6f75676820666f756e64732e0000000000000000000000000000\n      dup2\n      mstore\n      pop\n      0x20\n      add\n      swap2\n      pop\n      pop\n      mload(0x40)\n      dup1\n      swap2\n      sub\n      swap1\n      revert\n    tag_15:\n        /* \"contracts/ExampleExceptionRequire.sol\":500:507  _amount */\n      dup1\n        /* \"contracts/ExampleExceptionRequire.sol\":469:484  balanceReceived */\n      0x00\n        /* \"contracts/ExampleExceptionRequire.sol\":469:496  balanceReceived[msg.sender] */\n      dup1\n        /* \"contracts/ExampleExceptionRequire.sol\":485:495  msg.sender */\n      caller\n        /* \"contracts/ExampleExceptionRequire.sol\":469:496  balanceReceived[msg.sender] */\n      0xffffffffffffffffffffffffffffffffffffffff\n      and\n      0xffffffffffffffffffffffffffffffffffffffff\n      and\n      dup2\n      mstore\n      0x20\n      add\n      swap1\n      dup2\n      mstore\n      0x20\n      add\n      0x00\n      keccak256\n      0x00\n        /* \"contracts/ExampleExceptionRequire.sol\":469:507  balanceReceived[msg.sender] -= _amount */\n      dup3\n      dup3\n      dup3\n      swap1\n      sload\n      swap1\n      0x0100\n      exp\n      swap1\n      div\n      0xff\n      and\n      sub\n      swap3\n      pop\n      0x0100\n      exp\n      dup2\n      sload\n      dup2\n      0xff\n      mul\n      not\n      and\n      swap1\n      dup4\n      0xff\n      and\n      mul\n      or\n      swap1\n      sstore\n      pop\n        /* \"contracts/ExampleExceptionRequire.sol\":517:520  _to */\n      dup2\n        /* \"contracts/ExampleExceptionRequire.sol\":517:529  _to.transfer */\n      0xffffffffffffffffffffffffffffffffffffffff\n      and\n        /* \"contracts/ExampleExceptionRequire.sol\":517:538  _to.transfer(_amount) */\n      0x08fc\n        /* \"contracts/ExampleExceptionRequire.sol\":530:537  _amount */\n      dup3\n        /* \"contracts/ExampleExceptionRequire.sol\":517:538  _to.transfer(_amount) */\n      0xff\n      and\n      swap1\n      dup2\n      iszero\n      mul\n      swap1\n      mload(0x40)\n      0x00\n      mload(0x40)\n      dup1\n      dup4\n      sub\n      dup2\n      dup6\n      dup9\n      dup9\n      call\n      swap4\n      pop\n      pop\n      pop\n      pop\n      iszero\n      dup1\n      iszero\n      tag_17\n      jumpi\n      returndatasize\n      0x00\n      dup1\n      returndatacopy\n      revert(0x00, returndatasize)\n    tag_17:\n      pop\n        /* \"contracts/ExampleExceptionRequire.sol\":305:545  function withdrawMoney(address payable _to, uint8 _amount) public payable {... */\n      pop\n      pop\n      jump\t// out\n        /* \"contracts/ExampleExceptionRequire.sol\":149:299  function receiveMoney() public payable {... */\n    tag_9:\n        /* \"contracts/ExampleExceptionRequire.sol\":224:233  msg.value */\n      callvalue\n        /* \"contracts/ExampleExceptionRequire.sol\":205:234  msg.value == uint8(msg.value) */\n      0xff\n      and\n        /* \"contracts/ExampleExceptionRequire.sol\":205:214  msg.value */\n      callvalue\n        /* \"contracts/ExampleExceptionRequire.sol\":205:234  msg.value == uint8(msg.value) */\n      eq\n        /* \"contracts/ExampleExceptionRequire.sol\":198:235  assert(msg.value == uint8(msg.value)) */\n      tag_19\n      jumpi\n      invalid\n    tag_19:\n        /* \"contracts/ExampleExceptionRequire.sol\":282:291  msg.value */\n      callvalue\n        /* \"contracts/ExampleExceptionRequire.sol\":245:260  balanceReceived */\n      0x00\n        /* \"contracts/ExampleExceptionRequire.sol\":245:272  balanceReceived[msg.sender] */\n      dup1\n        /* \"contracts/ExampleExceptionRequire.sol\":261:271  msg.sender */\n      caller\n        /* \"contracts/ExampleExceptionRequire.sol\":245:272  balanceReceived[msg.sender] */\n      0xffffffffffffffffffffffffffffffffffffffff\n      and\n      0xffffffffffffffffffffffffffffffffffffffff\n      and\n      dup2\n      mstore\n      0x20\n      add\n      swap1\n      dup2\n      mstore\n      0x20\n      add\n      0x00\n      keccak256\n      0x00\n        /* \"contracts/ExampleExceptionRequire.sol\":245:292  balanceReceived[msg.sender] += uint8(msg.value) */\n      dup3\n      dup3\n      dup3\n      swap1\n      sload\n      swap1\n      0x0100\n      exp\n      swap1\n      div\n      0xff\n      and\n      add\n      swap3\n      pop\n      0x0100\n      exp\n      dup2\n      sload\n      dup2\n      0xff\n      mul\n      not\n      and\n      swap1\n      dup4\n      0xff\n      and\n      mul\n      or\n      swap1\n      sstore\n      pop\n        /* \"contracts/ExampleExceptionRequire.sol\":149:299  function receiveMoney() public payable {... */\n      jump\t// out\n        /* \"contracts/ExampleExceptionRequire.sol\":94:142  mapping(address => uint8) public balanceReceived */\n    tag_13:\n      mstore(0x20, 0x00)\n      dup1\n      0x00\n      mstore\n      keccak256(0x00, 0x40)\n      0x00\n      swap2\n      pop\n      sload\n      swap1\n      0x0100\n      exp\n      swap1\n      div\n      0xff\n      and\n      dup2\n      jump\t// out\n\n    auxdata: 0xa264697066735822122018384690b9ba973978aa8830bde2dae12c794129f2e60dffc56ab0ae46b815e564736f6c63430007000033\n}\n",
				"bytecode": {
					"linkReferences": {},
					"object": "608060405234801561001057600080fd5b50610347806100206000396000f3fe6080604052600436106100345760003560e01c806367c114b8146100395780636d26ec181461008a578063d18a42e114610094575b600080fd5b6100886004803603604081101561004f57600080fd5b81019080803573ffffffffffffffffffffffffffffffffffffffff169060200190929190803560ff1690602001909291905050506100fc565b005b61009261027a565b005b3480156100a057600080fd5b506100e3600480360360208110156100b757600080fd5b81019080803573ffffffffffffffffffffffffffffffffffffffff1690602001909291905050506102f1565b604051808260ff16815260200191505060405180910390f35b6000803373ffffffffffffffffffffffffffffffffffffffff1673ffffffffffffffffffffffffffffffffffffffff16815260200190815260200160002060009054906101000a900460ff1660ff168160ff1611156101c3576040517f08c379a00000000000000000000000000000000000000000000000000000000081526004018080602001828103825260128152602001807f4e6f7420656e6f75676820666f756e64732e000000000000000000000000000081525060200191505060405180910390fd5b806000803373ffffffffffffffffffffffffffffffffffffffff1673ffffffffffffffffffffffffffffffffffffffff16815260200190815260200160002060008282829054906101000a900460ff160392506101000a81548160ff021916908360ff1602179055508173ffffffffffffffffffffffffffffffffffffffff166108fc8260ff169081150290604051600060405180830381858888f19350505050158015610275573d6000803e3d6000fd5b505050565b3460ff16341461028657fe5b346000803373ffffffffffffffffffffffffffffffffffffffff1673ffffffffffffffffffffffffffffffffffffffff16815260200190815260200160002060008282829054906101000a900460ff160192506101000a81548160ff021916908360ff160217905550565b60006020528060005260406000206000915054906101000a900460ff168156fea264697066735822122018384690b9ba973978aa8830bde2dae12c794129f2e60dffc56ab0ae46b815e564736f6c63430007000033",
					"opcodes": "PUSH1 0x80 PUSH1 0x40 MSTORE CALLVALUE DUP1 ISZERO PUSH2 0x10 JUMPI PUSH1 0x0 DUP1 REVERT JUMPDEST POP PUSH2 0x347 DUP1 PUSH2 0x20 PUSH1 0x0 CODECOPY PUSH1 0x0 RETURN INVALID PUSH1 0x80 PUSH1 0x40 MSTORE PUSH1 0x4 CALLDATASIZE LT PUSH2 0x34 JUMPI PUSH1 0x0 CALLDATALOAD PUSH1 0xE0 SHR DUP1 PUSH4 0x67C114B8 EQ PUSH2 0x39 JUMPI DUP1 PUSH4 0x6D26EC18 EQ PUSH2 0x8A JUMPI DUP1 PUSH4 0xD18A42E1 EQ PUSH2 0x94 JUMPI JUMPDEST PUSH1 0x0 DUP1 REVERT JUMPDEST PUSH2 0x88 PUSH1 0x4 DUP1 CALLDATASIZE SUB PUSH1 0x40 DUP2 LT ISZERO PUSH2 0x4F JUMPI PUSH1 0x0 DUP1 REVERT JUMPDEST DUP2 ADD SWAP1 DUP1 DUP1 CALLDATALOAD PUSH20 0xFFFFFFFFFFFFFFFFFFFFFFFFFFFFFFFFFFFFFFFF AND SWAP1 PUSH1 0x20 ADD SWAP1 SWAP3 SWAP2 SWAP1 DUP1 CALLDATALOAD PUSH1 0xFF AND SWAP1 PUSH1 0x20 ADD SWAP1 SWAP3 SWAP2 SWAP1 POP POP POP PUSH2 0xFC JUMP JUMPDEST STOP JUMPDEST PUSH2 0x92 PUSH2 0x27A JUMP JUMPDEST STOP JUMPDEST CALLVALUE DUP1 ISZERO PUSH2 0xA0 JUMPI PUSH1 0x0 DUP1 REVERT JUMPDEST POP PUSH2 0xE3 PUSH1 0x4 DUP1 CALLDATASIZE SUB PUSH1 0x20 DUP2 LT ISZERO PUSH2 0xB7 JUMPI PUSH1 0x0 DUP1 REVERT JUMPDEST DUP2 ADD SWAP1 DUP1 DUP1 CALLDATALOAD PUSH20 0xFFFFFFFFFFFFFFFFFFFFFFFFFFFFFFFFFFFFFFFF AND SWAP1 PUSH1 0x20 ADD SWAP1 SWAP3 SWAP2 SWAP1 POP POP POP PUSH2 0x2F1 JUMP JUMPDEST PUSH1 0x40 MLOAD DUP1 DUP3 PUSH1 0xFF AND DUP2 MSTORE PUSH1 0x20 ADD SWAP2 POP POP PUSH1 0x40 MLOAD DUP1 SWAP2 SUB SWAP1 RETURN JUMPDEST PUSH1 0x0 DUP1 CALLER PUSH20 0xFFFFFFFFFFFFFFFFFFFFFFFFFFFFFFFFFFFFFFFF AND PUSH20 0xFFFFFFFFFFFFFFFFFFFFFFFFFFFFFFFFFFFFFFFF AND DUP2 MSTORE PUSH1 0x20 ADD SWAP1 DUP2 MSTORE PUSH1 0x20 ADD PUSH1 0x0 KECCAK256 PUSH1 0x0 SWAP1 SLOAD SWAP1 PUSH2 0x100 EXP SWAP1 DIV PUSH1 0xFF AND PUSH1 0xFF AND DUP2 PUSH1 0xFF AND GT ISZERO PUSH2 0x1C3 JUMPI PUSH1 0x40 MLOAD PUSH32 0x8C379A000000000000000000000000000000000000000000000000000000000 DUP2 MSTORE PUSH1 0x4 ADD DUP1 DUP1 PUSH1 0x20 ADD DUP3 DUP2 SUB DUP3 MSTORE PUSH1 0x12 DUP2 MSTORE PUSH1 0x20 ADD DUP1 PUSH32 0x4E6F7420656E6F75676820666F756E64732E0000000000000000000000000000 DUP2 MSTORE POP PUSH1 0x20 ADD SWAP2 POP POP PUSH1 0x40 MLOAD DUP1 SWAP2 SUB SWAP1 REVERT JUMPDEST DUP1 PUSH1 0x0 DUP1 CALLER PUSH20 0xFFFFFFFFFFFFFFFFFFFFFFFFFFFFFFFFFFFFFFFF AND PUSH20 0xFFFFFFFFFFFFFFFFFFFFFFFFFFFFFFFFFFFFFFFF AND DUP2 MSTORE PUSH1 0x20 ADD SWAP1 DUP2 MSTORE PUSH1 0x20 ADD PUSH1 0x0 KECCAK256 PUSH1 0x0 DUP3 DUP3 DUP3 SWAP1 SLOAD SWAP1 PUSH2 0x100 EXP SWAP1 DIV PUSH1 0xFF AND SUB SWAP3 POP PUSH2 0x100 EXP DUP2 SLOAD DUP2 PUSH1 0xFF MUL NOT AND SWAP1 DUP4 PUSH1 0xFF AND MUL OR SWAP1 SSTORE POP DUP2 PUSH20 0xFFFFFFFFFFFFFFFFFFFFFFFFFFFFFFFFFFFFFFFF AND PUSH2 0x8FC DUP3 PUSH1 0xFF AND SWAP1 DUP2 ISZERO MUL SWAP1 PUSH1 0x40 MLOAD PUSH1 0x0 PUSH1 0x40 MLOAD DUP1 DUP4 SUB DUP2 DUP6 DUP9 DUP9 CALL SWAP4 POP POP POP POP ISZERO DUP1 ISZERO PUSH2 0x275 JUMPI RETURNDATASIZE PUSH1 0x0 DUP1 RETURNDATACOPY RETURNDATASIZE PUSH1 0x0 REVERT JUMPDEST POP POP POP JUMP JUMPDEST CALLVALUE PUSH1 0xFF AND CALLVALUE EQ PUSH2 0x286 JUMPI INVALID JUMPDEST CALLVALUE PUSH1 0x0 DUP1 CALLER PUSH20 0xFFFFFFFFFFFFFFFFFFFFFFFFFFFFFFFFFFFFFFFF AND PUSH20 0xFFFFFFFFFFFFFFFFFFFFFFFFFFFFFFFFFFFFFFFF AND DUP2 MSTORE PUSH1 0x20 ADD SWAP1 DUP2 MSTORE PUSH1 0x20 ADD PUSH1 0x0 KECCAK256 PUSH1 0x0 DUP3 DUP3 DUP3 SWAP1 SLOAD SWAP1 PUSH2 0x100 EXP SWAP1 DIV PUSH1 0xFF AND ADD SWAP3 POP PUSH2 0x100 EXP DUP2 SLOAD DUP2 PUSH1 0xFF MUL NOT AND SWAP1 DUP4 PUSH1 0xFF AND MUL OR SWAP1 SSTORE POP JUMP JUMPDEST PUSH1 0x0 PUSH1 0x20 MSTORE DUP1 PUSH1 0x0 MSTORE PUSH1 0x40 PUSH1 0x0 KECCAK256 PUSH1 0x0 SWAP2 POP SLOAD SWAP1 PUSH2 0x100 EXP SWAP1 DIV PUSH1 0xFF AND DUP2 JUMP INVALID LOG2 PUSH5 0x6970667358 0x22 SLT KECCAK256 XOR CODESIZE CHAINID SWAP1 0xB9 0xBA SWAP8 CODECOPY PUSH25 0xAA8830BDE2DAE12C794129F2E60DFFC56AB0AE46B815E56473 PUSH16 0x6C634300070000330000000000000000 "
				},
				"gasEstimates": {
					"creation": {
						"codeDepositCost": "167800",
						"executionCost": "214",
						"totalCost": "168014"
					},
					"external": {
						"balanceReceived(address)": "1222",
						"receiveMoney()": "21952",
						"withdrawMoney(address,uint8)": "infinite"
					}
				},
				"methodIdentifiers": {
					"balanceReceived(address)": "d18a42e1",
					"receiveMoney()": "6d26ec18",
					"withdrawMoney(address,uint8)": "67c114b8"
				}
			},
			"storageLayout": {
				"storage": [
					{
						"astId": 5,
						"contract": "contracts/ExampleExceptionRequire.sol:ExampleExceptionReqire",
						"label": "balanceReceived",
						"offset": 0,
						"slot": "0",
						"type": "t_mapping(t_address,t_uint8)"
					}
				],
				"types": {
					"t_address": {
						"encoding": "inplace",
						"label": "address",
						"numberOfBytes": "20"
					},
					"t_mapping(t_address,t_uint8)": {
						"encoding": "mapping",
						"key": "t_address",
						"label": "mapping(address => uint8)",
						"numberOfBytes": "32",
						"value": "t_uint8"
					},
					"t_uint8": {
						"encoding": "inplace",
						"label": "uint8",
						"numberOfBytes": "1"
					}
				}
			},
			"userdoc": {
				"kind": "user",
				"methods": {},
				"version": 1
			}
		}
	}
}