{
	"data": {
		"bytecode": {
			"linkReferences": {},
			"object": "608060405234801561001057600080fd5b50336000806101000a81548173ffffffffffffffffffffffffffffffffffffffff021916908373ffffffffffffffffffffffffffffffffffffffff1602179055506113f4806100606000396000f3fe60806040526004361061008a5760003560e01c80633e5beab9116100595780633e5beab91461016257806358e404b11461019f5780638da5cb5b146101ca578063b1f8100d146101f5578063be45fd621461021e57610091565b80630633b14a146100965780630bc605ad146100d35780632b8a1c5a14610110578063310ec4a71461013957610091565b3661009157005b600080fd5b3480156100a257600080fd5b506100bd60048036038101906100b89190610b0f565b61025b565b6040516100ca9190610b57565b60405180910390f35b3480156100df57600080fd5b506100fa60048036038101906100f59190610b0f565b61027b565b6040516101079190610b57565b60405180910390f35b34801561011c57600080fd5b5061013760048036038101906101329190610b9e565b61029b565b005b34801561014557600080fd5b50610160600480360381019061015b9190610c14565b610384565b005b34801561016e57600080fd5b5061018960048036038101906101849190610b0f565b610519565b6040516101969190610c63565b60405180910390f35b3480156101ab57600080fd5b506101b4610531565b6040516101c19190610c63565b60405180910390f35b3480156101d657600080fd5b506101df610536565b6040516101ec9190610c9f565b60405180910390f35b34801561020157600080fd5b5061021c60048036038101906102179190610ce6565b61055a565b005b34801561022a57600080fd5b5061024560048036038101906102409190610e59565b610827565b6040516102529190610f47565b60405180910390f35b60036020528060005260406000206000915054906101000a900460ff1681565b60026020528060005260406000206000915054906101000a900460ff1681565b60008054906101000a900473ffffffffffffffffffffffffffffffffffffffff1673ffffffffffffffffffffffffffffffffffffffff163373ffffffffffffffffffffffffffffffffffffffff1614610329576040517f08c379a000000000000000000000000000000000000000000000000000000000815260040161032090610fc6565b60405180910390fd5b80600360008473ffffffffffffffffffffffffffffffffffffffff1673ffffffffffffffffffffffffffffffffffffffff16815260200190815260200160002060006101000a81548160ff0219169083151502179055505050565b60008054906101000a900473ffffffffffffffffffffffffffffffffffffffff1673ffffffffffffffffffffffffffffffffffffffff163373ffffffffffffffffffffffffffffffffffffffff1614610412576040517f08c379a000000000000000000000000000000000000000000000000000000000815260040161040990610fc6565b60405180910390fd5b80600160008473ffffffffffffffffffffffffffffffffffffffff1673ffffffffffffffffffffffffffffffffffffffff1681526020019081526020016000208190555060008111156104bc576001600260008473ffffffffffffffffffffffffffffffffffffffff1673ffffffffffffffffffffffffffffffffffffffff16815260200190815260200160002060006101000a81548160ff021916908315150217905550610515565b6000600260008473ffffffffffffffffffffffffffffffffffffffff1673ffffffffffffffffffffffffffffffffffffffff16815260200190815260200160002060006101000a81548160ff0219169083151502179055505b5050565b60016020528060005260406000206000915090505481565b600381565b60008054906101000a900473ffffffffffffffffffffffffffffffffffffffff1681565b600360003373ffffffffffffffffffffffffffffffffffffffff1673ffffffffffffffffffffffffffffffffffffffff16815260200190815260200160002060009054906101000a900460ff166105e6576040517f08c379a00000000000000000000000000000000000000000000000000000000081526004016105dd90611058565b60405180910390fd5b60001515600460008373ffffffffffffffffffffffffffffffffffffffff1673ffffffffffffffffffffffffffffffffffffffff16815260200190815260200160002060003373ffffffffffffffffffffffffffffffffffffffff1673ffffffffffffffffffffffffffffffffffffffff16815260200190815260200160002060009054906101000a900460ff161515146106b6576040517f08c379a00000000000000000000000000000000000000000000000000000000081526004016106ad906110c4565b60405180910390fd5b600560009054906101000a900473ffffffffffffffffffffffffffffffffffffffff1673ffffffffffffffffffffffffffffffffffffffff168173ffffffffffffffffffffffffffffffffffffffff16146107555780600560006101000a81548173ffffffffffffffffffffffffffffffffffffffff021916908373ffffffffffffffffffffffffffffffffffffffff16021790555060006006819055505b6006600081548092919061076890611113565b919050555060036006541061082457600560009054906101000a900473ffffffffffffffffffffffffffffffffffffffff166000806101000a81548173ffffffffffffffffffffffffffffffffffffffff021916908373ffffffffffffffffffffffffffffffffffffffff1602179055506000600560006101000a81548173ffffffffffffffffffffffffffffffffffffffff021916908373ffffffffffffffffffffffffffffffffffffffff16021790555060006006819055505b50565b606060008054906101000a900473ffffffffffffffffffffffffffffffffffffffff1673ffffffffffffffffffffffffffffffffffffffff163373ffffffffffffffffffffffffffffffffffffffff16146109e157600260003373ffffffffffffffffffffffffffffffffffffffff1673ffffffffffffffffffffffffffffffffffffffff16815260200190815260200160002060009054906101000a900460ff16610908576040517f08c379a00000000000000000000000000000000000000000000000000000000081526004016108ff906111f3565b60405180910390fd5b82600160003373ffffffffffffffffffffffffffffffffffffffff1673ffffffffffffffffffffffffffffffffffffffff16815260200190815260200160002054101561098a576040517f08c379a000000000000000000000000000000000000000000000000000000000815260040161098190611285565b60405180910390fd5b82600160003373ffffffffffffffffffffffffffffffffffffffff1673ffffffffffffffffffffffffffffffffffffffff16815260200190815260200160002060008282546109d991906112a5565b925050819055505b6000808573ffffffffffffffffffffffffffffffffffffffff168585604051610a0a9190611315565b60006040518083038185875af1925050503d8060008114610a47576040519150601f19603f3d011682016040523d82523d6000602084013e610a4c565b606091505b509150915081610a91576040517f08c379a0000000000000000000000000000000000000000000000000000000008152600401610a889061139e565b60405180910390fd5b80925050509392505050565b6000604051905090565b600080fd5b600080fd5b600073ffffffffffffffffffffffffffffffffffffffff82169050919050565b6000610adc82610ab1565b9050919050565b610aec81610ad1565b8114610af757600080fd5b50565b600081359050610b0981610ae3565b92915050565b600060208284031215610b2557610b24610aa7565b5b6000610b3384828501610afa565b91505092915050565b60008115159050919050565b610b5181610b3c565b82525050565b6000602082019050610b6c6000830184610b48565b92915050565b610b7b81610b3c565b8114610b8657600080fd5b50565b600081359050610b9881610b72565b92915050565b60008060408385031215610bb557610bb4610aa7565b5b6000610bc385828601610afa565b9250506020610bd485828601610b89565b9150509250929050565b6000819050919050565b610bf181610bde565b8114610bfc57600080fd5b50565b600081359050610c0e81610be8565b92915050565b60008060408385031215610c2b57610c2a610aa7565b5b6000610c3985828601610afa565b9250506020610c4a85828601610bff565b9150509250929050565b610c5d81610bde565b82525050565b6000602082019050610c786000830184610c54565b92915050565b6000610c8982610ab1565b9050919050565b610c9981610c7e565b82525050565b6000602082019050610cb46000830184610c90565b92915050565b610cc381610c7e565b8114610cce57600080fd5b50565b600081359050610ce081610cba565b92915050565b600060208284031215610cfc57610cfb610aa7565b5b6000610d0a84828501610cd1565b91505092915050565b600080fd5b600080fd5b6000601f19601f8301169050919050565b7f4e487b7100000000000000000000000000000000000000000000000000000000600052604160045260246000fd5b610d6682610d1d565b810181811067ffffffffffffffff82111715610d8557610d84610d2e565b5b80604052505050565b6000610d98610a9d565b9050610da48282610d5d565b919050565b600067ffffffffffffffff821115610dc457610dc3610d2e565b5b610dcd82610d1d565b9050602081019050919050565b82818337600083830152505050565b6000610dfc610df784610da9565b610d8e565b905082815260208101848484011115610e1857610e17610d18565b5b610e23848285610dda565b509392505050565b600082601f830112610e4057610e3f610d13565b5b8135610e50848260208601610de9565b91505092915050565b600080600060608486031215610e7257610e71610aa7565b5b6000610e8086828701610cd1565b9350506020610e9186828701610bff565b925050604084013567ffffffffffffffff811115610eb257610eb1610aac565b5b610ebe86828701610e2b565b9150509250925092565b600081519050919050565b600082825260208201905092915050565b60005b83811015610f02578082015181840152602081019050610ee7565b60008484015250505050565b6000610f1982610ec8565b610f238185610ed3565b9350610f33818560208601610ee4565b610f3c81610d1d565b840191505092915050565b60006020820190508181036000830152610f618184610f0e565b905092915050565b600082825260208201905092915050565b7f596f7520617265206e6f7420746865206f776e65722e2041626f7274696e672e600082015250565b6000610fb0602083610f69565b9150610fbb82610f7a565b602082019050919050565b60006020820190508181036000830152610fdf81610fa3565b9050919050565b7f596f7520617265206e6f74206120677561726469616e2e2041626f7274696e6760008201527f2e00000000000000000000000000000000000000000000000000000000000000602082015250565b6000611042602183610f69565b915061104d82610fe6565b604082019050919050565b6000602082019050818103600083015261107181611035565b9050919050565b7f416c726561647920766f7465642e2041626f7274696e672e0000000000000000600082015250565b60006110ae601883610f69565b91506110b982611078565b602082019050919050565b600060208201905081810360008301526110dd816110a1565b9050919050565b7f4e487b7100000000000000000000000000000000000000000000000000000000600052601160045260246000fd5b600061111e82610bde565b91507fffffffffffffffffffffffffffffffffffffffffffffffffffffffffffffffff82036111505761114f6110e4565b5b600182019050919050565b7f596f7520617265206e6f7420616c6c6f77656420746f2073656e6420616e797460008201527f68696e672066726f6d207468697320736d61727420636f6e74726163742e204160208201527f626f7274696e672e000000000000000000000000000000000000000000000000604082015250565b60006111dd604883610f69565b91506111e88261115b565b606082019050919050565b6000602082019050818103600083015261120c816111d0565b9050919050565b7f596f752061726520747279696e6720746f2073656e64206d6f7265207468656e60008201527f20796f752061726520616c6c6f77656420746f2e2041626f7274696e672e0000602082015250565b600061126f603e83610f69565b915061127a82611213565b604082019050919050565b6000602082019050818103600083015261129e81611262565b9050919050565b60006112b082610bde565b91506112bb83610bde565b92508282039050818111156112d3576112d26110e4565b5b92915050565b600081905092915050565b60006112ef82610ec8565b6112f981856112d9565b9350611309818560208601610ee4565b80840191505092915050565b600061132182846112e4565b915081905092915050565b7f41626f7274696e672c2063616c6c20776173206e6f742073756363657373667560008201527f6c6c2e0000000000000000000000000000000000000000000000000000000000602082015250565b6000611388602383610f69565b91506113938261132c565b604082019050919050565b600060208201905081810360008301526113b78161137b565b905091905056fea26469706673582212207aeb86bc1f99c68876ea8dee40403720381b3e5d8fb80abdb5d29364807f83e464736f6c63430008100033",
			"opcodes": "PUSH1 0x80 PUSH1 0x40 MSTORE CALLVALUE DUP1 ISZERO PUSH2 0x10 JUMPI PUSH1 0x0 DUP1 REVERT JUMPDEST POP CALLER PUSH1 0x0 DUP1 PUSH2 0x100 EXP DUP2 SLOAD DUP2 PUSH20 0xFFFFFFFFFFFFFFFFFFFFFFFFFFFFFFFFFFFFFFFF MUL NOT AND SWAP1 DUP4 PUSH20 0xFFFFFFFFFFFFFFFFFFFFFFFFFFFFFFFFFFFFFFFF AND MUL OR SWAP1 SSTORE POP PUSH2 0x13F4 DUP1 PUSH2 0x60 PUSH1 0x0 CODECOPY PUSH1 0x0 RETURN INVALID PUSH1 0x80 PUSH1 0x40 MSTORE PUSH1 0x4 CALLDATASIZE LT PUSH2 0x8A JUMPI PUSH1 0x0 CALLDATALOAD PUSH1 0xE0 SHR DUP1 PUSH4 0x3E5BEAB9 GT PUSH2 0x59 JUMPI DUP1 PUSH4 0x3E5BEAB9 EQ PUSH2 0x162 JUMPI DUP1 PUSH4 0x58E404B1 EQ PUSH2 0x19F JUMPI DUP1 PUSH4 0x8DA5CB5B EQ PUSH2 0x1CA JUMPI DUP1 PUSH4 0xB1F8100D EQ PUSH2 0x1F5 JUMPI DUP1 PUSH4 0xBE45FD62 EQ PUSH2 0x21E JUMPI PUSH2 0x91 JUMP JUMPDEST DUP1 PUSH4 0x633B14A EQ PUSH2 0x96 JUMPI DUP1 PUSH4 0xBC605AD EQ PUSH2 0xD3 JUMPI DUP1 PUSH4 0x2B8A1C5A EQ PUSH2 0x110 JUMPI DUP1 PUSH4 0x310EC4A7 EQ PUSH2 0x139 JUMPI PUSH2 0x91 JUMP JUMPDEST CALLDATASIZE PUSH2 0x91 JUMPI STOP JUMPDEST PUSH1 0x0 DUP1 REVERT JUMPDEST CALLVALUE DUP1 ISZERO PUSH2 0xA2 JUMPI PUSH1 0x0 DUP1 REVERT JUMPDEST POP PUSH2 0xBD PUSH1 0x4 DUP1 CALLDATASIZE SUB DUP2 ADD SWAP1 PUSH2 0xB8 SWAP2 SWAP1 PUSH2 0xB0F JUMP JUMPDEST PUSH2 0x25B JUMP JUMPDEST PUSH1 0x40 MLOAD PUSH2 0xCA SWAP2 SWAP1 PUSH2 0xB57 JUMP JUMPDEST PUSH1 0x40 MLOAD DUP1 SWAP2 SUB SWAP1 RETURN JUMPDEST CALLVALUE DUP1 ISZERO PUSH2 0xDF JUMPI PUSH1 0x0 DUP1 REVERT JUMPDEST POP PUSH2 0xFA PUSH1 0x4 DUP1 CALLDATASIZE SUB DUP2 ADD SWAP1 PUSH2 0xF5 SWAP2 SWAP1 PUSH2 0xB0F JUMP JUMPDEST PUSH2 0x27B JUMP JUMPDEST PUSH1 0x40 MLOAD PUSH2 0x107 SWAP2 SWAP1 PUSH2 0xB57 JUMP JUMPDEST PUSH1 0x40 MLOAD DUP1 SWAP2 SUB SWAP1 RETURN JUMPDEST CALLVALUE DUP1 ISZERO PUSH2 0x11C JUMPI PUSH1 0x0 DUP1 REVERT JUMPDEST POP PUSH2 0x137 PUSH1 0x4 DUP1 CALLDATASIZE SUB DUP2 ADD SWAP1 PUSH2 0x132 SWAP2 SWAP1 PUSH2 0xB9E JUMP JUMPDEST PUSH2 0x29B JUMP JUMPDEST STOP JUMPDEST CALLVALUE DUP1 ISZERO PUSH2 0x145 JUMPI PUSH1 0x0 DUP1 REVERT JUMPDEST POP PUSH2 0x160 PUSH1 0x4 DUP1 CALLDATASIZE SUB DUP2 ADD SWAP1 PUSH2 0x15B SWAP2 SWAP1 PUSH2 0xC14 JUMP JUMPDEST PUSH2 0x384 JUMP JUMPDEST STOP JUMPDEST CALLVALUE DUP1 ISZERO PUSH2 0x16E JUMPI PUSH1 0x0 DUP1 REVERT JUMPDEST POP PUSH2 0x189 PUSH1 0x4 DUP1 CALLDATASIZE SUB DUP2 ADD SWAP1 PUSH2 0x184 SWAP2 SWAP1 PUSH2 0xB0F JUMP JUMPDEST PUSH2 0x519 JUMP JUMPDEST PUSH1 0x40 MLOAD PUSH2 0x196 SWAP2 SWAP1 PUSH2 0xC63 JUMP JUMPDEST PUSH1 0x40 MLOAD DUP1 SWAP2 SUB SWAP1 RETURN JUMPDEST CALLVALUE DUP1 ISZERO PUSH2 0x1AB JUMPI PUSH1 0x0 DUP1 REVERT JUMPDEST POP PUSH2 0x1B4 PUSH2 0x531 JUMP JUMPDEST PUSH1 0x40 MLOAD PUSH2 0x1C1 SWAP2 SWAP1 PUSH2 0xC63 JUMP JUMPDEST PUSH1 0x40 MLOAD DUP1 SWAP2 SUB SWAP1 RETURN JUMPDEST CALLVALUE DUP1 ISZERO PUSH2 0x1D6 JUMPI PUSH1 0x0 DUP1 REVERT JUMPDEST POP PUSH2 0x1DF PUSH2 0x536 JUMP JUMPDEST PUSH1 0x40 MLOAD PUSH2 0x1EC SWAP2 SWAP1 PUSH2 0xC9F JUMP JUMPDEST PUSH1 0x40 MLOAD DUP1 SWAP2 SUB SWAP1 RETURN JUMPDEST CALLVALUE DUP1 ISZERO PUSH2 0x201 JUMPI PUSH1 0x0 DUP1 REVERT JUMPDEST POP PUSH2 0x21C PUSH1 0x4 DUP1 CALLDATASIZE SUB DUP2 ADD SWAP1 PUSH2 0x217 SWAP2 SWAP1 PUSH2 0xCE6 JUMP JUMPDEST PUSH2 0x55A JUMP JUMPDEST STOP JUMPDEST CALLVALUE DUP1 ISZERO PUSH2 0x22A JUMPI PUSH1 0x0 DUP1 REVERT JUMPDEST POP PUSH2 0x245 PUSH1 0x4 DUP1 CALLDATASIZE SUB DUP2 ADD SWAP1 PUSH2 0x240 SWAP2 SWAP1 PUSH2 0xE59 JUMP JUMPDEST PUSH2 0x827 JUMP JUMPDEST PUSH1 0x40 MLOAD PUSH2 0x252 SWAP2 SWAP1 PUSH2 0xF47 JUMP JUMPDEST PUSH1 0x40 MLOAD DUP1 SWAP2 SUB SWAP1 RETURN JUMPDEST PUSH1 0x3 PUSH1 0x20 MSTORE DUP1 PUSH1 0x0 MSTORE PUSH1 0x40 PUSH1 0x0 KECCAK256 PUSH1 0x0 SWAP2 POP SLOAD SWAP1 PUSH2 0x100 EXP SWAP1 DIV PUSH1 0xFF AND DUP2 JUMP JUMPDEST PUSH1 0x2 PUSH1 0x20 MSTORE DUP1 PUSH1 0x0 MSTORE PUSH1 0x40 PUSH1 0x0 KECCAK256 PUSH1 0x0 SWAP2 POP SLOAD SWAP1 PUSH2 0x100 EXP SWAP1 DIV PUSH1 0xFF AND DUP2 JUMP JUMPDEST PUSH1 0x0 DUP1 SLOAD SWAP1 PUSH2 0x100 EXP SWAP1 DIV PUSH20 0xFFFFFFFFFFFFFFFFFFFFFFFFFFFFFFFFFFFFFFFF AND PUSH20 0xFFFFFFFFFFFFFFFFFFFFFFFFFFFFFFFFFFFFFFFF AND CALLER PUSH20 0xFFFFFFFFFFFFFFFFFFFFFFFFFFFFFFFFFFFFFFFF AND EQ PUSH2 0x329 JUMPI PUSH1 0x40 MLOAD PUSH32 0x8C379A000000000000000000000000000000000000000000000000000000000 DUP2 MSTORE PUSH1 0x4 ADD PUSH2 0x320 SWAP1 PUSH2 0xFC6 JUMP JUMPDEST PUSH1 0x40 MLOAD DUP1 SWAP2 SUB SWAP1 REVERT JUMPDEST DUP1 PUSH1 0x3 PUSH1 0x0 DUP5 PUSH20 0xFFFFFFFFFFFFFFFFFFFFFFFFFFFFFFFFFFFFFFFF AND PUSH20 0xFFFFFFFFFFFFFFFFFFFFFFFFFFFFFFFFFFFFFFFF AND DUP2 MSTORE PUSH1 0x20 ADD SWAP1 DUP2 MSTORE PUSH1 0x20 ADD PUSH1 0x0 KECCAK256 PUSH1 0x0 PUSH2 0x100 EXP DUP2 SLOAD DUP2 PUSH1 0xFF MUL NOT AND SWAP1 DUP4 ISZERO ISZERO MUL OR SWAP1 SSTORE POP POP POP JUMP JUMPDEST PUSH1 0x0 DUP1 SLOAD SWAP1 PUSH2 0x100 EXP SWAP1 DIV PUSH20 0xFFFFFFFFFFFFFFFFFFFFFFFFFFFFFFFFFFFFFFFF AND PUSH20 0xFFFFFFFFFFFFFFFFFFFFFFFFFFFFFFFFFFFFFFFF AND CALLER PUSH20 0xFFFFFFFFFFFFFFFFFFFFFFFFFFFFFFFFFFFFFFFF AND EQ PUSH2 0x412 JUMPI PUSH1 0x40 MLOAD PUSH32 0x8C379A000000000000000000000000000000000000000000000000000000000 DUP2 MSTORE PUSH1 0x4 ADD PUSH2 0x409 SWAP1 PUSH2 0xFC6 JUMP JUMPDEST PUSH1 0x40 MLOAD DUP1 SWAP2 SUB SWAP1 REVERT JUMPDEST DUP1 PUSH1 0x1 PUSH1 0x0 DUP5 PUSH20 0xFFFFFFFFFFFFFFFFFFFFFFFFFFFFFFFFFFFFFFFF AND PUSH20 0xFFFFFFFFFFFFFFFFFFFFFFFFFFFFFFFFFFFFFFFF AND DUP2 MSTORE PUSH1 0x20 ADD SWAP1 DUP2 MSTORE PUSH1 0x20 ADD PUSH1 0x0 KECCAK256 DUP2 SWAP1 SSTORE POP PUSH1 0x0 DUP2 GT ISZERO PUSH2 0x4BC JUMPI PUSH1 0x1 PUSH1 0x2 PUSH1 0x0 DUP5 PUSH20 0xFFFFFFFFFFFFFFFFFFFFFFFFFFFFFFFFFFFFFFFF AND PUSH20 0xFFFFFFFFFFFFFFFFFFFFFFFFFFFFFFFFFFFFFFFF AND DUP2 MSTORE PUSH1 0x20 ADD SWAP1 DUP2 MSTORE PUSH1 0x20 ADD PUSH1 0x0 KECCAK256 PUSH1 0x0 PUSH2 0x100 EXP DUP2 SLOAD DUP2 PUSH1 0xFF MUL NOT AND SWAP1 DUP4 ISZERO ISZERO MUL OR SWAP1 SSTORE POP PUSH2 0x515 JUMP JUMPDEST PUSH1 0x0 PUSH1 0x2 PUSH1 0x0 DUP5 PUSH20 0xFFFFFFFFFFFFFFFFFFFFFFFFFFFFFFFFFFFFFFFF AND PUSH20 0xFFFFFFFFFFFFFFFFFFFFFFFFFFFFFFFFFFFFFFFF AND DUP2 MSTORE PUSH1 0x20 ADD SWAP1 DUP2 MSTORE PUSH1 0x20 ADD PUSH1 0x0 KECCAK256 PUSH1 0x0 PUSH2 0x100 EXP DUP2 SLOAD DUP2 PUSH1 0xFF MUL NOT AND SWAP1 DUP4 ISZERO ISZERO MUL OR SWAP1 SSTORE POP JUMPDEST POP POP JUMP JUMPDEST PUSH1 0x1 PUSH1 0x20 MSTORE DUP1 PUSH1 0x0 MSTORE PUSH1 0x40 PUSH1 0x0 KECCAK256 PUSH1 0x0 SWAP2 POP SWAP1 POP SLOAD DUP2 JUMP JUMPDEST PUSH1 0x3 DUP2 JUMP JUMPDEST PUSH1 0x0 DUP1 SLOAD SWAP1 PUSH2 0x100 EXP SWAP1 DIV PUSH20 0xFFFFFFFFFFFFFFFFFFFFFFFFFFFFFFFFFFFFFFFF AND DUP2 JUMP JUMPDEST PUSH1 0x3 PUSH1 0x0 CALLER PUSH20 0xFFFFFFFFFFFFFFFFFFFFFFFFFFFFFFFFFFFFFFFF AND PUSH20 0xFFFFFFFFFFFFFFFFFFFFFFFFFFFFFFFFFFFFFFFF AND DUP2 MSTORE PUSH1 0x20 ADD SWAP1 DUP2 MSTORE PUSH1 0x20 ADD PUSH1 0x0 KECCAK256 PUSH1 0x0 SWAP1 SLOAD SWAP1 PUSH2 0x100 EXP SWAP1 DIV PUSH1 0xFF AND PUSH2 0x5E6 JUMPI PUSH1 0x40 MLOAD PUSH32 0x8C379A000000000000000000000000000000000000000000000000000000000 DUP2 MSTORE PUSH1 0x4 ADD PUSH2 0x5DD SWAP1 PUSH2 0x1058 JUMP JUMPDEST PUSH1 0x40 MLOAD DUP1 SWAP2 SUB SWAP1 REVERT JUMPDEST PUSH1 0x0 ISZERO ISZERO PUSH1 0x4 PUSH1 0x0 DUP4 PUSH20 0xFFFFFFFFFFFFFFFFFFFFFFFFFFFFFFFFFFFFFFFF AND PUSH20 0xFFFFFFFFFFFFFFFFFFFFFFFFFFFFFFFFFFFFFFFF AND DUP2 MSTORE PUSH1 0x20 ADD SWAP1 DUP2 MSTORE PUSH1 0x20 ADD PUSH1 0x0 KECCAK256 PUSH1 0x0 CALLER PUSH20 0xFFFFFFFFFFFFFFFFFFFFFFFFFFFFFFFFFFFFFFFF AND PUSH20 0xFFFFFFFFFFFFFFFFFFFFFFFFFFFFFFFFFFFFFFFF AND DUP2 MSTORE PUSH1 0x20 ADD SWAP1 DUP2 MSTORE PUSH1 0x20 ADD PUSH1 0x0 KECCAK256 PUSH1 0x0 SWAP1 SLOAD SWAP1 PUSH2 0x100 EXP SWAP1 DIV PUSH1 0xFF AND ISZERO ISZERO EQ PUSH2 0x6B6 JUMPI PUSH1 0x40 MLOAD PUSH32 0x8C379A000000000000000000000000000000000000000000000000000000000 DUP2 MSTORE PUSH1 0x4 ADD PUSH2 0x6AD SWAP1 PUSH2 0x10C4 JUMP JUMPDEST PUSH1 0x40 MLOAD DUP1 SWAP2 SUB SWAP1 REVERT JUMPDEST PUSH1 0x5 PUSH1 0x0 SWAP1 SLOAD SWAP1 PUSH2 0x100 EXP SWAP1 DIV PUSH20 0xFFFFFFFFFFFFFFFFFFFFFFFFFFFFFFFFFFFFFFFF AND PUSH20 0xFFFFFFFFFFFFFFFFFFFFFFFFFFFFFFFFFFFFFFFF AND DUP2 PUSH20 0xFFFFFFFFFFFFFFFFFFFFFFFFFFFFFFFFFFFFFFFF AND EQ PUSH2 0x755 JUMPI DUP1 PUSH1 0x5 PUSH1 0x0 PUSH2 0x100 EXP DUP2 SLOAD DUP2 PUSH20 0xFFFFFFFFFFFFFFFFFFFFFFFFFFFFFFFFFFFFFFFF MUL NOT AND SWAP1 DUP4 PUSH20 0xFFFFFFFFFFFFFFFFFFFFFFFFFFFFFFFFFFFFFFFF AND MUL OR SWAP1 SSTORE POP PUSH1 0x0 PUSH1 0x6 DUP2 SWAP1 SSTORE POP JUMPDEST PUSH1 0x6 PUSH1 0x0 DUP2 SLOAD DUP1 SWAP3 SWAP2 SWAP1 PUSH2 0x768 SWAP1 PUSH2 0x1113 JUMP JUMPDEST SWAP2 SWAP1 POP SSTORE POP PUSH1 0x3 PUSH1 0x6 SLOAD LT PUSH2 0x824 JUMPI PUSH1 0x5 PUSH1 0x0 SWAP1 SLOAD SWAP1 PUSH2 0x100 EXP SWAP1 DIV PUSH20 0xFFFFFFFFFFFFFFFFFFFFFFFFFFFFFFFFFFFFFFFF AND PUSH1 0x0 DUP1 PUSH2 0x100 EXP DUP2 SLOAD DUP2 PUSH20 0xFFFFFFFFFFFFFFFFFFFFFFFFFFFFFFFFFFFFFFFF MUL NOT AND SWAP1 DUP4 PUSH20 0xFFFFFFFFFFFFFFFFFFFFFFFFFFFFFFFFFFFFFFFF AND MUL OR SWAP1 SSTORE POP PUSH1 0x0 PUSH1 0x5 PUSH1 0x0 PUSH2 0x100 EXP DUP2 SLOAD DUP2 PUSH20 0xFFFFFFFFFFFFFFFFFFFFFFFFFFFFFFFFFFFFFFFF MUL NOT AND SWAP1 DUP4 PUSH20 0xFFFFFFFFFFFFFFFFFFFFFFFFFFFFFFFFFFFFFFFF AND MUL OR SWAP1 SSTORE POP PUSH1 0x0 PUSH1 0x6 DUP2 SWAP1 SSTORE POP JUMPDEST POP JUMP JUMPDEST PUSH1 0x60 PUSH1 0x0 DUP1 SLOAD SWAP1 PUSH2 0x100 EXP SWAP1 DIV PUSH20 0xFFFFFFFFFFFFFFFFFFFFFFFFFFFFFFFFFFFFFFFF AND PUSH20 0xFFFFFFFFFFFFFFFFFFFFFFFFFFFFFFFFFFFFFFFF AND CALLER PUSH20 0xFFFFFFFFFFFFFFFFFFFFFFFFFFFFFFFFFFFFFFFF AND EQ PUSH2 0x9E1 JUMPI PUSH1 0x2 PUSH1 0x0 CALLER PUSH20 0xFFFFFFFFFFFFFFFFFFFFFFFFFFFFFFFFFFFFFFFF AND PUSH20 0xFFFFFFFFFFFFFFFFFFFFFFFFFFFFFFFFFFFFFFFF AND DUP2 MSTORE PUSH1 0x20 ADD SWAP1 DUP2 MSTORE PUSH1 0x20 ADD PUSH1 0x0 KECCAK256 PUSH1 0x0 SWAP1 SLOAD SWAP1 PUSH2 0x100 EXP SWAP1 DIV PUSH1 0xFF AND PUSH2 0x908 JUMPI PUSH1 0x40 MLOAD PUSH32 0x8C379A000000000000000000000000000000000000000000000000000000000 DUP2 MSTORE PUSH1 0x4 ADD PUSH2 0x8FF SWAP1 PUSH2 0x11F3 JUMP JUMPDEST PUSH1 0x40 MLOAD DUP1 SWAP2 SUB SWAP1 REVERT JUMPDEST DUP3 PUSH1 0x1 PUSH1 0x0 CALLER PUSH20 0xFFFFFFFFFFFFFFFFFFFFFFFFFFFFFFFFFFFFFFFF AND PUSH20 0xFFFFFFFFFFFFFFFFFFFFFFFFFFFFFFFFFFFFFFFF AND DUP2 MSTORE PUSH1 0x20 ADD SWAP1 DUP2 MSTORE PUSH1 0x20 ADD PUSH1 0x0 KECCAK256 SLOAD LT ISZERO PUSH2 0x98A JUMPI PUSH1 0x40 MLOAD PUSH32 0x8C379A000000000000000000000000000000000000000000000000000000000 DUP2 MSTORE PUSH1 0x4 ADD PUSH2 0x981 SWAP1 PUSH2 0x1285 JUMP JUMPDEST PUSH1 0x40 MLOAD DUP1 SWAP2 SUB SWAP1 REVERT JUMPDEST DUP3 PUSH1 0x1 PUSH1 0x0 CALLER PUSH20 0xFFFFFFFFFFFFFFFFFFFFFFFFFFFFFFFFFFFFFFFF AND PUSH20 0xFFFFFFFFFFFFFFFFFFFFFFFFFFFFFFFFFFFFFFFF AND DUP2 MSTORE PUSH1 0x20 ADD SWAP1 DUP2 MSTORE PUSH1 0x20 ADD PUSH1 0x0 KECCAK256 PUSH1 0x0 DUP3 DUP3 SLOAD PUSH2 0x9D9 SWAP2 SWAP1 PUSH2 0x12A5 JUMP JUMPDEST SWAP3 POP POP DUP2 SWAP1 SSTORE POP JUMPDEST PUSH1 0x0 DUP1 DUP6 PUSH20 0xFFFFFFFFFFFFFFFFFFFFFFFFFFFFFFFFFFFFFFFF AND DUP6 DUP6 PUSH1 0x40 MLOAD PUSH2 0xA0A SWAP2 SWAP1 PUSH2 0x1315 JUMP JUMPDEST PUSH1 0x0 PUSH1 0x40 MLOAD DUP1 DUP4 SUB DUP2 DUP6 DUP8 GAS CALL SWAP3 POP POP POP RETURNDATASIZE DUP1 PUSH1 0x0 DUP2 EQ PUSH2 0xA47 JUMPI PUSH1 0x40 MLOAD SWAP2 POP PUSH1 0x1F NOT PUSH1 0x3F RETURNDATASIZE ADD AND DUP3 ADD PUSH1 0x40 MSTORE RETURNDATASIZE DUP3 MSTORE RETURNDATASIZE PUSH1 0x0 PUSH1 0x20 DUP5 ADD RETURNDATACOPY PUSH2 0xA4C JUMP JUMPDEST PUSH1 0x60 SWAP2 POP JUMPDEST POP SWAP2 POP SWAP2 POP DUP2 PUSH2 0xA91 JUMPI PUSH1 0x40 MLOAD PUSH32 0x8C379A000000000000000000000000000000000000000000000000000000000 DUP2 MSTORE PUSH1 0x4 ADD PUSH2 0xA88 SWAP1 PUSH2 0x139E JUMP JUMPDEST PUSH1 0x40 MLOAD DUP1 SWAP2 SUB SWAP1 REVERT JUMPDEST DUP1 SWAP3 POP POP POP SWAP4 SWAP3 POP POP POP JUMP JUMPDEST PUSH1 0x0 PUSH1 0x40 MLOAD SWAP1 POP SWAP1 JUMP JUMPDEST PUSH1 0x0 DUP1 REVERT JUMPDEST PUSH1 0x0 DUP1 REVERT JUMPDEST PUSH1 0x0 PUSH20 0xFFFFFFFFFFFFFFFFFFFFFFFFFFFFFFFFFFFFFFFF DUP3 AND SWAP1 POP SWAP2 SWAP1 POP JUMP JUMPDEST PUSH1 0x0 PUSH2 0xADC DUP3 PUSH2 0xAB1 JUMP JUMPDEST SWAP1 POP SWAP2 SWAP1 POP JUMP JUMPDEST PUSH2 0xAEC DUP2 PUSH2 0xAD1 JUMP JUMPDEST DUP2 EQ PUSH2 0xAF7 JUMPI PUSH1 0x0 DUP1 REVERT JUMPDEST POP JUMP JUMPDEST PUSH1 0x0 DUP2 CALLDATALOAD SWAP1 POP PUSH2 0xB09 DUP2 PUSH2 0xAE3 JUMP JUMPDEST SWAP3 SWAP2 POP POP JUMP JUMPDEST PUSH1 0x0 PUSH1 0x20 DUP3 DUP5 SUB SLT ISZERO PUSH2 0xB25 JUMPI PUSH2 0xB24 PUSH2 0xAA7 JUMP JUMPDEST JUMPDEST PUSH1 0x0 PUSH2 0xB33 DUP5 DUP3 DUP6 ADD PUSH2 0xAFA JUMP JUMPDEST SWAP2 POP POP SWAP3 SWAP2 POP POP JUMP JUMPDEST PUSH1 0x0 DUP2 ISZERO ISZERO SWAP1 POP SWAP2 SWAP1 POP JUMP JUMPDEST PUSH2 0xB51 DUP2 PUSH2 0xB3C JUMP JUMPDEST DUP3 MSTORE POP POP JUMP JUMPDEST PUSH1 0x0 PUSH1 0x20 DUP3 ADD SWAP1 POP PUSH2 0xB6C PUSH1 0x0 DUP4 ADD DUP5 PUSH2 0xB48 JUMP JUMPDEST SWAP3 SWAP2 POP POP JUMP JUMPDEST PUSH2 0xB7B DUP2 PUSH2 0xB3C JUMP JUMPDEST DUP2 EQ PUSH2 0xB86 JUMPI PUSH1 0x0 DUP1 REVERT JUMPDEST POP JUMP JUMPDEST PUSH1 0x0 DUP2 CALLDATALOAD SWAP1 POP PUSH2 0xB98 DUP2 PUSH2 0xB72 JUMP JUMPDEST SWAP3 SWAP2 POP POP JUMP JUMPDEST PUSH1 0x0 DUP1 PUSH1 0x40 DUP4 DUP6 SUB SLT ISZERO PUSH2 0xBB5 JUMPI PUSH2 0xBB4 PUSH2 0xAA7 JUMP JUMPDEST JUMPDEST PUSH1 0x0 PUSH2 0xBC3 DUP6 DUP3 DUP7 ADD PUSH2 0xAFA JUMP JUMPDEST SWAP3 POP POP PUSH1 0x20 PUSH2 0xBD4 DUP6 DUP3 DUP7 ADD PUSH2 0xB89 JUMP JUMPDEST SWAP2 POP POP SWAP3 POP SWAP3 SWAP1 POP JUMP JUMPDEST PUSH1 0x0 DUP2 SWAP1 POP SWAP2 SWAP1 POP JUMP JUMPDEST PUSH2 0xBF1 DUP2 PUSH2 0xBDE JUMP JUMPDEST DUP2 EQ PUSH2 0xBFC JUMPI PUSH1 0x0 DUP1 REVERT JUMPDEST POP JUMP JUMPDEST PUSH1 0x0 DUP2 CALLDATALOAD SWAP1 POP PUSH2 0xC0E DUP2 PUSH2 0xBE8 JUMP JUMPDEST SWAP3 SWAP2 POP POP JUMP JUMPDEST PUSH1 0x0 DUP1 PUSH1 0x40 DUP4 DUP6 SUB SLT ISZERO PUSH2 0xC2B JUMPI PUSH2 0xC2A PUSH2 0xAA7 JUMP JUMPDEST JUMPDEST PUSH1 0x0 PUSH2 0xC39 DUP6 DUP3 DUP7 ADD PUSH2 0xAFA JUMP JUMPDEST SWAP3 POP POP PUSH1 0x20 PUSH2 0xC4A DUP6 DUP3 DUP7 ADD PUSH2 0xBFF JUMP JUMPDEST SWAP2 POP POP SWAP3 POP SWAP3 SWAP1 POP JUMP JUMPDEST PUSH2 0xC5D DUP2 PUSH2 0xBDE JUMP JUMPDEST DUP3 MSTORE POP POP JUMP JUMPDEST PUSH1 0x0 PUSH1 0x20 DUP3 ADD SWAP1 POP PUSH2 0xC78 PUSH1 0x0 DUP4 ADD DUP5 PUSH2 0xC54 JUMP JUMPDEST SWAP3 SWAP2 POP POP JUMP JUMPDEST PUSH1 0x0 PUSH2 0xC89 DUP3 PUSH2 0xAB1 JUMP JUMPDEST SWAP1 POP SWAP2 SWAP1 POP JUMP JUMPDEST PUSH2 0xC99 DUP2 PUSH2 0xC7E JUMP JUMPDEST DUP3 MSTORE POP POP JUMP JUMPDEST PUSH1 0x0 PUSH1 0x20 DUP3 ADD SWAP1 POP PUSH2 0xCB4 PUSH1 0x0 DUP4 ADD DUP5 PUSH2 0xC90 JUMP JUMPDEST SWAP3 SWAP2 POP POP JUMP JUMPDEST PUSH2 0xCC3 DUP2 PUSH2 0xC7E JUMP JUMPDEST DUP2 EQ PUSH2 0xCCE JUMPI PUSH1 0x0 DUP1 REVERT JUMPDEST POP JUMP JUMPDEST PUSH1 0x0 DUP2 CALLDATALOAD SWAP1 POP PUSH2 0xCE0 DUP2 PUSH2 0xCBA JUMP JUMPDEST SWAP3 SWAP2 POP POP JUMP JUMPDEST PUSH1 0x0 PUSH1 0x20 DUP3 DUP5 SUB SLT ISZERO PUSH2 0xCFC JUMPI PUSH2 0xCFB PUSH2 0xAA7 JUMP JUMPDEST JUMPDEST PUSH1 0x0 PUSH2 0xD0A DUP5 DUP3 DUP6 ADD PUSH2 0xCD1 JUMP JUMPDEST SWAP2 POP POP SWAP3 SWAP2 POP POP JUMP JUMPDEST PUSH1 0x0 DUP1 REVERT JUMPDEST PUSH1 0x0 DUP1 REVERT JUMPDEST PUSH1 0x0 PUSH1 0x1F NOT PUSH1 0x1F DUP4 ADD AND SWAP1 POP SWAP2 SWAP1 POP JUMP JUMPDEST PUSH32 0x4E487B7100000000000000000000000000000000000000000000000000000000 PUSH1 0x0 MSTORE PUSH1 0x41 PUSH1 0x4 MSTORE PUSH1 0x24 PUSH1 0x0 REVERT JUMPDEST PUSH2 0xD66 DUP3 PUSH2 0xD1D JUMP JUMPDEST DUP2 ADD DUP2 DUP2 LT PUSH8 0xFFFFFFFFFFFFFFFF DUP3 GT OR ISZERO PUSH2 0xD85 JUMPI PUSH2 0xD84 PUSH2 0xD2E JUMP JUMPDEST JUMPDEST DUP1 PUSH1 0x40 MSTORE POP POP POP JUMP JUMPDEST PUSH1 0x0 PUSH2 0xD98 PUSH2 0xA9D JUMP JUMPDEST SWAP1 POP PUSH2 0xDA4 DUP3 DUP3 PUSH2 0xD5D JUMP JUMPDEST SWAP2 SWAP1 POP JUMP JUMPDEST PUSH1 0x0 PUSH8 0xFFFFFFFFFFFFFFFF DUP3 GT ISZERO PUSH2 0xDC4 JUMPI PUSH2 0xDC3 PUSH2 0xD2E JUMP JUMPDEST JUMPDEST PUSH2 0xDCD DUP3 PUSH2 0xD1D JUMP JUMPDEST SWAP1 POP PUSH1 0x20 DUP2 ADD SWAP1 POP SWAP2 SWAP1 POP JUMP JUMPDEST DUP3 DUP2 DUP4 CALLDATACOPY PUSH1 0x0 DUP4 DUP4 ADD MSTORE POP POP POP JUMP JUMPDEST PUSH1 0x0 PUSH2 0xDFC PUSH2 0xDF7 DUP5 PUSH2 0xDA9 JUMP JUMPDEST PUSH2 0xD8E JUMP JUMPDEST SWAP1 POP DUP3 DUP2 MSTORE PUSH1 0x20 DUP2 ADD DUP5 DUP5 DUP5 ADD GT ISZERO PUSH2 0xE18 JUMPI PUSH2 0xE17 PUSH2 0xD18 JUMP JUMPDEST JUMPDEST PUSH2 0xE23 DUP5 DUP3 DUP6 PUSH2 0xDDA JUMP JUMPDEST POP SWAP4 SWAP3 POP POP POP JUMP JUMPDEST PUSH1 0x0 DUP3 PUSH1 0x1F DUP4 ADD SLT PUSH2 0xE40 JUMPI PUSH2 0xE3F PUSH2 0xD13 JUMP JUMPDEST JUMPDEST DUP2 CALLDATALOAD PUSH2 0xE50 DUP5 DUP3 PUSH1 0x20 DUP7 ADD PUSH2 0xDE9 JUMP JUMPDEST SWAP2 POP POP SWAP3 SWAP2 POP POP JUMP JUMPDEST PUSH1 0x0 DUP1 PUSH1 0x0 PUSH1 0x60 DUP5 DUP7 SUB SLT ISZERO PUSH2 0xE72 JUMPI PUSH2 0xE71 PUSH2 0xAA7 JUMP JUMPDEST JUMPDEST PUSH1 0x0 PUSH2 0xE80 DUP7 DUP3 DUP8 ADD PUSH2 0xCD1 JUMP JUMPDEST SWAP4 POP POP PUSH1 0x20 PUSH2 0xE91 DUP7 DUP3 DUP8 ADD PUSH2 0xBFF JUMP JUMPDEST SWAP3 POP POP PUSH1 0x40 DUP5 ADD CALLDATALOAD PUSH8 0xFFFFFFFFFFFFFFFF DUP2 GT ISZERO PUSH2 0xEB2 JUMPI PUSH2 0xEB1 PUSH2 0xAAC JUMP JUMPDEST JUMPDEST PUSH2 0xEBE DUP7 DUP3 DUP8 ADD PUSH2 0xE2B JUMP JUMPDEST SWAP2 POP POP SWAP3 POP SWAP3 POP SWAP3 JUMP JUMPDEST PUSH1 0x0 DUP2 MLOAD SWAP1 POP SWAP2 SWAP1 POP JUMP JUMPDEST PUSH1 0x0 DUP3 DUP3 MSTORE PUSH1 0x20 DUP3 ADD SWAP1 POP SWAP3 SWAP2 POP POP JUMP JUMPDEST PUSH1 0x0 JUMPDEST DUP4 DUP2 LT ISZERO PUSH2 0xF02 JUMPI DUP1 DUP3 ADD MLOAD DUP2 DUP5 ADD MSTORE PUSH1 0x20 DUP2 ADD SWAP1 POP PUSH2 0xEE7 JUMP JUMPDEST PUSH1 0x0 DUP5 DUP5 ADD MSTORE POP POP POP POP JUMP JUMPDEST PUSH1 0x0 PUSH2 0xF19 DUP3 PUSH2 0xEC8 JUMP JUMPDEST PUSH2 0xF23 DUP2 DUP6 PUSH2 0xED3 JUMP JUMPDEST SWAP4 POP PUSH2 0xF33 DUP2 DUP6 PUSH1 0x20 DUP7 ADD PUSH2 0xEE4 JUMP JUMPDEST PUSH2 0xF3C DUP2 PUSH2 0xD1D JUMP JUMPDEST DUP5 ADD SWAP2 POP POP SWAP3 SWAP2 POP POP JUMP JUMPDEST PUSH1 0x0 PUSH1 0x20 DUP3 ADD SWAP1 POP DUP2 DUP2 SUB PUSH1 0x0 DUP4 ADD MSTORE PUSH2 0xF61 DUP2 DUP5 PUSH2 0xF0E JUMP JUMPDEST SWAP1 POP SWAP3 SWAP2 POP POP JUMP JUMPDEST PUSH1 0x0 DUP3 DUP3 MSTORE PUSH1 0x20 DUP3 ADD SWAP1 POP SWAP3 SWAP2 POP POP JUMP JUMPDEST PUSH32 0x596F7520617265206E6F7420746865206F776E65722E2041626F7274696E672E PUSH1 0x0 DUP3 ADD MSTORE POP JUMP JUMPDEST PUSH1 0x0 PUSH2 0xFB0 PUSH1 0x20 DUP4 PUSH2 0xF69 JUMP JUMPDEST SWAP2 POP PUSH2 0xFBB DUP3 PUSH2 0xF7A JUMP JUMPDEST PUSH1 0x20 DUP3 ADD SWAP1 POP SWAP2 SWAP1 POP JUMP JUMPDEST PUSH1 0x0 PUSH1 0x20 DUP3 ADD SWAP1 POP DUP2 DUP2 SUB PUSH1 0x0 DUP4 ADD MSTORE PUSH2 0xFDF DUP2 PUSH2 0xFA3 JUMP JUMPDEST SWAP1 POP SWAP2 SWAP1 POP JUMP JUMPDEST PUSH32 0x596F7520617265206E6F74206120677561726469616E2E2041626F7274696E67 PUSH1 0x0 DUP3 ADD MSTORE PUSH32 0x2E00000000000000000000000000000000000000000000000000000000000000 PUSH1 0x20 DUP3 ADD MSTORE POP JUMP JUMPDEST PUSH1 0x0 PUSH2 0x1042 PUSH1 0x21 DUP4 PUSH2 0xF69 JUMP JUMPDEST SWAP2 POP PUSH2 0x104D DUP3 PUSH2 0xFE6 JUMP JUMPDEST PUSH1 0x40 DUP3 ADD SWAP1 POP SWAP2 SWAP1 POP JUMP JUMPDEST PUSH1 0x0 PUSH1 0x20 DUP3 ADD SWAP1 POP DUP2 DUP2 SUB PUSH1 0x0 DUP4 ADD MSTORE PUSH2 0x1071 DUP2 PUSH2 0x1035 JUMP JUMPDEST SWAP1 POP SWAP2 SWAP1 POP JUMP JUMPDEST PUSH32 0x416C726561647920766F7465642E2041626F7274696E672E0000000000000000 PUSH1 0x0 DUP3 ADD MSTORE POP JUMP JUMPDEST PUSH1 0x0 PUSH2 0x10AE PUSH1 0x18 DUP4 PUSH2 0xF69 JUMP JUMPDEST SWAP2 POP PUSH2 0x10B9 DUP3 PUSH2 0x1078 JUMP JUMPDEST PUSH1 0x20 DUP3 ADD SWAP1 POP SWAP2 SWAP1 POP JUMP JUMPDEST PUSH1 0x0 PUSH1 0x20 DUP3 ADD SWAP1 POP DUP2 DUP2 SUB PUSH1 0x0 DUP4 ADD MSTORE PUSH2 0x10DD DUP2 PUSH2 0x10A1 JUMP JUMPDEST SWAP1 POP SWAP2 SWAP1 POP JUMP JUMPDEST PUSH32 0x4E487B7100000000000000000000000000000000000000000000000000000000 PUSH1 0x0 MSTORE PUSH1 0x11 PUSH1 0x4 MSTORE PUSH1 0x24 PUSH1 0x0 REVERT JUMPDEST PUSH1 0x0 PUSH2 0x111E DUP3 PUSH2 0xBDE JUMP JUMPDEST SWAP2 POP PUSH32 0xFFFFFFFFFFFFFFFFFFFFFFFFFFFFFFFFFFFFFFFFFFFFFFFFFFFFFFFFFFFFFFFF DUP3 SUB PUSH2 0x1150 JUMPI PUSH2 0x114F PUSH2 0x10E4 JUMP JUMPDEST JUMPDEST PUSH1 0x1 DUP3 ADD SWAP1 POP SWAP2 SWAP1 POP JUMP JUMPDEST PUSH32 0x596F7520617265206E6F7420616C6C6F77656420746F2073656E6420616E7974 PUSH1 0x0 DUP3 ADD MSTORE PUSH32 0x68696E672066726F6D207468697320736D61727420636F6E74726163742E2041 PUSH1 0x20 DUP3 ADD MSTORE PUSH32 0x626F7274696E672E000000000000000000000000000000000000000000000000 PUSH1 0x40 DUP3 ADD MSTORE POP JUMP JUMPDEST PUSH1 0x0 PUSH2 0x11DD PUSH1 0x48 DUP4 PUSH2 0xF69 JUMP JUMPDEST SWAP2 POP PUSH2 0x11E8 DUP3 PUSH2 0x115B JUMP JUMPDEST PUSH1 0x60 DUP3 ADD SWAP1 POP SWAP2 SWAP1 POP JUMP JUMPDEST PUSH1 0x0 PUSH1 0x20 DUP3 ADD SWAP1 POP DUP2 DUP2 SUB PUSH1 0x0 DUP4 ADD MSTORE PUSH2 0x120C DUP2 PUSH2 0x11D0 JUMP JUMPDEST SWAP1 POP SWAP2 SWAP1 POP JUMP JUMPDEST PUSH32 0x596F752061726520747279696E6720746F2073656E64206D6F7265207468656E PUSH1 0x0 DUP3 ADD MSTORE PUSH32 0x20796F752061726520616C6C6F77656420746F2E2041626F7274696E672E0000 PUSH1 0x20 DUP3 ADD MSTORE POP JUMP JUMPDEST PUSH1 0x0 PUSH2 0x126F PUSH1 0x3E DUP4 PUSH2 0xF69 JUMP JUMPDEST SWAP2 POP PUSH2 0x127A DUP3 PUSH2 0x1213 JUMP JUMPDEST PUSH1 0x40 DUP3 ADD SWAP1 POP SWAP2 SWAP1 POP JUMP JUMPDEST PUSH1 0x0 PUSH1 0x20 DUP3 ADD SWAP1 POP DUP2 DUP2 SUB PUSH1 0x0 DUP4 ADD MSTORE PUSH2 0x129E DUP2 PUSH2 0x1262 JUMP JUMPDEST SWAP1 POP SWAP2 SWAP1 POP JUMP JUMPDEST PUSH1 0x0 PUSH2 0x12B0 DUP3 PUSH2 0xBDE JUMP JUMPDEST SWAP2 POP PUSH2 0x12BB DUP4 PUSH2 0xBDE JUMP JUMPDEST SWAP3 POP DUP3 DUP3 SUB SWAP1 POP DUP2 DUP2 GT ISZERO PUSH2 0x12D3 JUMPI PUSH2 0x12D2 PUSH2 0x10E4 JUMP JUMPDEST JUMPDEST SWAP3 SWAP2 POP POP JUMP JUMPDEST PUSH1 0x0 DUP2 SWAP1 POP SWAP3 SWAP2 POP POP JUMP JUMPDEST PUSH1 0x0 PUSH2 0x12EF DUP3 PUSH2 0xEC8 JUMP JUMPDEST PUSH2 0x12F9 DUP2 DUP6 PUSH2 0x12D9 JUMP JUMPDEST SWAP4 POP PUSH2 0x1309 DUP2 DUP6 PUSH1 0x20 DUP7 ADD PUSH2 0xEE4 JUMP JUMPDEST DUP1 DUP5 ADD SWAP2 POP POP SWAP3 SWAP2 POP POP JUMP JUMPDEST PUSH1 0x0 PUSH2 0x1321 DUP3 DUP5 PUSH2 0x12E4 JUMP JUMPDEST SWAP2 POP DUP2 SWAP1 POP SWAP3 SWAP2 POP POP JUMP JUMPDEST PUSH32 0x41626F7274696E672C2063616C6C20776173206E6F7420737563636573736675 PUSH1 0x0 DUP3 ADD MSTORE PUSH32 0x6C6C2E0000000000000000000000000000000000000000000000000000000000 PUSH1 0x20 DUP3 ADD MSTORE POP JUMP JUMPDEST PUSH1 0x0 PUSH2 0x1388 PUSH1 0x23 DUP4 PUSH2 0xF69 JUMP JUMPDEST SWAP2 POP PUSH2 0x1393 DUP3 PUSH2 0x132C JUMP JUMPDEST PUSH1 0x40 DUP3 ADD SWAP1 POP SWAP2 SWAP1 POP JUMP JUMPDEST PUSH1 0x0 PUSH1 0x20 DUP3 ADD SWAP1 POP DUP2 DUP2 SUB PUSH1 0x0 DUP4 ADD MSTORE PUSH2 0x13B7 DUP2 PUSH2 0x137B JUMP JUMPDEST SWAP1 POP SWAP2 SWAP1 POP JUMP INVALID LOG2 PUSH5 0x6970667358 0x22 SLT KECCAK256 PUSH27 0xEB86BC1F99C68876EA8DEE40403720381B3E5D8FB80ABDB5D29364 DUP1 PUSH32 0x83E464736F6C6343000810003300000000000000000000000000000000000000 "
		},
		"gasEstimates": {
			"creation": {
				"codeDepositCost": "1021600",
				"executionCost": "25327",
				"totalCost": "1046927"
			},
			"external": {
				"allowance(address)": "2814",
				"confirmationFromGuardiansForReset()": "351",
				"guardians(address)": "2846",
				"isAllowedToSend(address)": "2868",
				"owner()": "2555",
				"proposeNewOwner(address)": "63045",
				"setAllowance(address,uint256)": "49460",
				"setGuardian(address,bool)": "27203",
				"transfer(address,uint256,bytes)": "infinite"
			}
		},
		"methodIdentifiers": {
			"allowance(address)": "3e5beab9",
			"confirmationFromGuardiansForReset()": "58e404b1",
			"guardians(address)": "0633b14a",
			"isAllowedToSend(address)": "0bc605ad",
			"owner()": "8da5cb5b",
			"proposeNewOwner(address)": "b1f8100d",
			"setAllowance(address,uint256)": "310ec4a7",
			"setGuardian(address,bool)": "2b8a1c5a",
			"transfer(address,uint256,bytes)": "be45fd62"
		}
	},
	"abi": [
		{
			"inputs": [],
			"stateMutability": "nonpayable",
			"type": "constructor"
		},
		{
			"inputs": [
				{
					"internalType": "address",
					"name": "",
					"type": "address"
				}
			],
			"name": "allowance",
			"outputs": [
				{
					"internalType": "uint256",
					"name": "",
					"type": "uint256"
				}
			],
			"stateMutability": "view",
			"type": "function"
		},
		{
			"inputs": [],
			"name": "confirmationFromGuardiansForReset",
			"outputs": [
				{
					"internalType": "uint256",
					"name": "",
					"type": "uint256"
				}
			],
			"stateMutability": "view",
			"type": "function"
		},
		{
			"inputs": [
				{
					"internalType": "address",
					"name": "",
					"type": "address"
				}
			],
			"name": "guardians",
			"outputs": [
				{
					"internalType": "bool",
					"name": "",
					"type": "bool"
				}
			],
			"stateMutability": "view",
			"type": "function"
		},
		{
			"inputs": [
				{
					"internalType": "address",
					"name": "",
					"type": "address"
				}
			],
			"name": "isAllowedToSend",
			"outputs": [
				{
					"internalType": "bool",
					"name": "",
					"type": "bool"
				}
			],
			"stateMutability": "view",
			"type": "function"
		},
		{
			"inputs": [],
			"name": "owner",
			"outputs": [
				{
					"internalType": "address payable",
					"name": "",
					"type": "address"
				}
			],
			"stateMutability": "view",
			"type": "function"
		},
		{
			"inputs": [
				{
					"internalType": "address payable",
					"name": "_newOwner",
					"type": "address"
				}
			],
			"name": "proposeNewOwner",
			"outputs": [],
			"stateMutability": "nonpayable",
			"type": "function"
		},
		{
			"inputs": [
				{
					"internalType": "address",
					"name": "_for",
					"type": "address"
				},
				{
					"internalType": "uint256",
					"name": "_amount",
					"type": "uint256"
				}
			],
			"name": "setAllowance",
			"outputs": [],
			"stateMutability": "nonpayable",
			"type": "function"
		},
		{
			"inputs": [
				{
					"internalType": "address",
					"name": "_guardian",
					"type": "address"
				},
				{
					"internalType": "bool",
					"name": "_isGuardian",
					"type": "bool"
				}
			],
			"name": "setGuardian",
			"outputs": [],
			"stateMutability": "nonpayable",
			"type": "function"
		},
		{
			"inputs": [
				{
					"internalType": "address payable",
					"name": "_to",
					"type": "address"
				},
				{
					"internalType": "uint256",
					"name": "_amount",
					"type": "uint256"
				},
				{
					"internalType": "bytes",
					"name": "_payload",
					"type": "bytes"
				}
			],
			"name": "transfer",
			"outputs": [
				{
					"internalType": "bytes",
					"name": "",
					"type": "bytes"
				}
			],
			"stateMutability": "nonpayable",
			"type": "function"
		},
		{
			"stateMutability": "payable",
			"type": "receive"
		}
	]
}