{
	"data": {
		"bytecode": {
			"linkReferences": {},
			"object": "608060405234801561001057600080fd5b5061011b806100206000396000f3fe6080604052348015600f57600080fd5b506004361060285760003560e01c806354353f2f14602d575b600080fd5b60336035565b005b6040517fb94e62a100000000000000000000000000000000000000000000000000000000815260040160659060c7565b60405180910390fd5b600082825260208201905092915050565b7f4e6f7420616c6c6f7765642e0000000000000000000000000000000000000000600082015250565b600060b3600c83606e565b915060bc82607f565b602082019050919050565b6000602082019050818103600083015260de8160a8565b905091905056fea2646970667358221220a36e1944803b4663022c28d95b03a8f1a61f6aa39ebff3524804d4766d00737a64736f6c634300080f0033",
			"opcodes": "PUSH1 0x80 PUSH1 0x40 MSTORE CALLVALUE DUP1 ISZERO PUSH2 0x10 JUMPI PUSH1 0x0 DUP1 REVERT JUMPDEST POP PUSH2 0x11B DUP1 PUSH2 0x20 PUSH1 0x0 CODECOPY PUSH1 0x0 RETURN INVALID PUSH1 0x80 PUSH1 0x40 MSTORE CALLVALUE DUP1 ISZERO PUSH1 0xF JUMPI PUSH1 0x0 DUP1 REVERT JUMPDEST POP PUSH1 0x4 CALLDATASIZE LT PUSH1 0x28 JUMPI PUSH1 0x0 CALLDATALOAD PUSH1 0xE0 SHR DUP1 PUSH4 0x54353F2F EQ PUSH1 0x2D JUMPI JUMPDEST PUSH1 0x0 DUP1 REVERT JUMPDEST PUSH1 0x33 PUSH1 0x35 JUMP JUMPDEST STOP JUMPDEST PUSH1 0x40 MLOAD PUSH32 0xB94E62A100000000000000000000000000000000000000000000000000000000 DUP2 MSTORE PUSH1 0x4 ADD PUSH1 0x65 SWAP1 PUSH1 0xC7 JUMP JUMPDEST PUSH1 0x40 MLOAD DUP1 SWAP2 SUB SWAP1 REVERT JUMPDEST PUSH1 0x0 DUP3 DUP3 MSTORE PUSH1 0x20 DUP3 ADD SWAP1 POP SWAP3 SWAP2 POP POP JUMP JUMPDEST PUSH32 0x4E6F7420616C6C6F7765642E0000000000000000000000000000000000000000 PUSH1 0x0 DUP3 ADD MSTORE POP JUMP JUMPDEST PUSH1 0x0 PUSH1 0xB3 PUSH1 0xC DUP4 PUSH1 0x6E JUMP JUMPDEST SWAP2 POP PUSH1 0xBC DUP3 PUSH1 0x7F JUMP JUMPDEST PUSH1 0x20 DUP3 ADD SWAP1 POP SWAP2 SWAP1 POP JUMP JUMPDEST PUSH1 0x0 PUSH1 0x20 DUP3 ADD SWAP1 POP DUP2 DUP2 SUB PUSH1 0x0 DUP4 ADD MSTORE PUSH1 0xDE DUP2 PUSH1 0xA8 JUMP JUMPDEST SWAP1 POP SWAP2 SWAP1 POP JUMP INVALID LOG2 PUSH5 0x6970667358 0x22 SLT KECCAK256 LOG3 PUSH15 0x1944803B4663022C28D95B03A8F1A6 0x1F PUSH11 0xA39EBFF3524804D4766D00 PUSH20 0x7A64736F6C634300080F00330000000000000000 "
		},
		"gasEstimates": {
			"creation": {
				"codeDepositCost": "56600",
				"executionCost": "105",
				"totalCost": "56705"
			},
			"external": {
				"example()": "412"
			}
		},
		"methodIdentifiers": {
			"example()": "54353f2f"
		}
	},
	"abi": [
		{
			"inputs": [
				{
					"internalType": "string",
					"name": "",
					"type": "string"
				}
			],
			"name": "NotAllowedError",
			"type": "error"
		},
		{
			"inputs": [],
			"name": "example",
			"outputs": [],
			"stateMutability": "pure",
			"type": "function"
		}
	]
}